:100000000C94DF000C9407010C9407010C94070179
:100010000C9407010C9407010C9407010C94070140
:100020000C9407010C9407010C9407010C94070130
:100030000C9407010C9407010C9407010C94070120
:100040000C94F9040C9407010C9469050C94430575
:100050000C9407010C9407010C9407010C94070100
:100060000C9407010C94070100407A10F35A00A089
:10007000724E18090010A5D4E80000E87648170071
:1000800000E40B54020000CA9A3B000000E1F505B1
:10009000000080969800000040420F000000A086FB
:1000A00001000000102700000000E803000000002D
:1000B0006400000000000A000000000001000000D1
:1000C00000002C76D888DC674F0823DFC1DFAE59EB
:1000D000E1B1B796E5E3E453C63AE651997696E87E
:1000E000E6C28426EB898C9B62ED407C6FFCEFBC02
:1000F0009C9F40F2BAA56FA5F490055A2AF75C932D
:100100006B6CF9676DC11BFCE0E40D47FEF520E662
:10011000B500D0ED902E0300943577050080841E45
:10012000080000204E0A000000C80C333333330FA0
:10013000986E12831141EF8D2114893BE65516CF3D
:10014000FEE6DB18D1844B381BF77C1D901DA4BB49
:10015000E424203284725E228100C9F124ECA1E5FE
:100160003D2700000000240027002A0000000000B6
:10017000250028002B0000000008000201000003F9
:100180000407000000000000000000000000230041
:1001900026002900040404040404040402020202E8
:1001A000020203030303030301020408102040803A
:1001B000010204081020010204081020BB071124CA
:1001C0001FBECFEFD8E0DEBFCDBF21E0A8E4B1E095
:1001D00001C01D92AA3FB207E1F711E0A0E0B1E033
:1001E000E8E5FBE102C005900D92A834B107D9F70C
:1001F00010E0CFEDD0E004C02197FE010E949F0BDC
:10020000CE3DD107C9F70E94E0050C94AA0D0C94CD
:10021000000090E0FC01EA58FE4F2491FC01E855F3
:10022000FE4F3491FC01EC56FE4FE491EE2309F4AD
:100230003CC0222339F1233091F038F42130A9F069
:10024000223001F584B58F7D12C0273091F028301F
:10025000A1F02430B9F4809180008F7D03C080919B
:1002600080008F77809380000DC084B58F7784BD28
:1002700009C08091B0008F7703C08091B0008F7D5E
:100280008093B000F0E0EE0FFF1FE459FE4FA59100
:10029000B4919FB7F894611104C08C9130953823C4
:1002A00002C0EC913E2B3C939FBF0895CF93DF9308
:1002B00090E0FC01E855FE4F2491FC01EC56FE4F06
:1002C0008491882361F190E0880F991FFC01EE5919
:1002D000FE4FC591D491FC01E459FE4FA591B49114
:1002E000611109C09FB7F894888120958223888383
:1002F000EC912E230BC0623061F49FB7F894888193
:10030000322F309583238883EC912E2B2C939FBF23
:1003100006C08FB7F894E8812E2B28838FBFDF911A
:10032000CF9108951F93CF93DF93182FEB0161E0D6
:100330000E945601209711F460E004C0CF3FD10520
:1003400039F461E0812FDF91CF911F910C94090165
:10035000E12FF0E0EA58FE4FE491E330F9F048F481
:10036000E130B9F0E230A1F584B5806284BDC8BD4A
:1003700034C0E730E9F0E83019F1E43049F5809114
:100380008000806280938000D0938B00C0938A00AD
:1003900024C084B5806884BDC7BD1FC08091800023
:1003A000806880938000D0938900C093880015C036
:1003B0008091B00080688093B000C093B3000DC0FE
:1003C0008091B00080628093B000C093B40005C0FB
:1003D000C038D1050CF0B5CFAFCFDF91CF911F91D1
:1003E00008953FB7F8948091F2019091F301A091A4
:1003F000F401B091F50126B5A89B05C02F3F19F077
:100400000196A11DB11D3FBFBA2FA92F982F882794
:10041000820F911DA11DB11DBC01CD0142E0660FEF
:10042000771F881F991F4A95D1F708958F929F9241
:10043000AF92BF92CF92DF92EF92FF926B017C015D
:100440000E94F1014B015C01C114D104E104F104EB
:10045000F1F00E94F101DC01CB0188199909AA0988
:10046000BB09883E9340A105B10570F321E0C21A93
:10047000D108E108F10888EE880E83E0981EA11CDF
:10048000B11CC114D104E104F10419F7DDCFFF90D0
:10049000EF90DF90CF90BF90AF909F908F90089596
:1004A000CF92DF92EF92FF920F931F93CF93DF9340
:1004B0006C017A018B01C0E0D0E0CE15DF0581F040
:1004C000D8016D918D01D601ED91FC910190F081E3
:1004D000E02DC6010995892B11F02196EECF7E0102
:1004E000C701DF91CF911F910F91FF90EF90DF90A7
:1004F000CF900895089580E090E00895FC01538D19
:10050000448D252F30E0842F90E0821B930B5417ED
:1005100010F0CF96089501970895FC01918D828D7A
:10052000981761F0828DDF01A80FB11D5D968C9147
:10053000928D9F5F9F73928F90E008958FEF9FEF52
:100540000895FC01918D828D981731F0828DE80F0E
:10055000F11D858D90E008958FEF9FEF0895FC01C8
:10056000918D228D892F90E0805C9F4F821B910995
:100570008F739927089588E491E00E94AF0221E0EB
:10058000892B09F420E0822F0895FC01848DDF017E
:10059000A80FB11DA35ABF4F2C91848D90E00196F6
:1005A0008F739927848FA689B7892C93A089B189E5
:1005B0008C91837080648C93938D848D981306C086
:1005C0000288F389E02D80818F7D80830895EF92EA
:1005D000FF920F931F93CF93DF93EC0181E0888FFD
:1005E0009B8D8C8D981305C0E889F989808185FDE4
:1005F00026C0F62E0B8D10E00F5F1F4F0F731127D3
:10060000E02E8C8DE8120CC00FB607FCFACFE889FB
:10061000F989808185FFF5CFCE010E94C502F1CF17
:100620008B8DFE01E80FF11DE35AFF4FF0829FB75B
:10063000F8940B8FEA89FB89808180620AC09FB79A
:10064000F894EE89FF896083E889F9898081837055
:10065000806480839FBF81E090E0DF91CF911F9104
:100660000F91FF90EF900895CF93DF93EC01888D69
:100670008823C9F0EA89FB89808185FD05C0A889A6
:10068000B9898C9186FD0FC00FB607FCF5CF80812C
:1006900085FFF2CFA889B9898C9185FFEDCFCE0176
:1006A0000E94C502E7CFDF91CF91089580E090E0EE
:1006B000892B29F00E94BB0281110C94000008953F
:1006C0001F93CF93DF93182F60E00E940901C3E0CE
:1006D000D0E0CE010197F1F761E0812F0E9409017E
:1006E00083E290E00197F1F760E0812F0E94090119
:1006F0002197F1F7DF91CF911F910895CF93DF9369
:10070000EB01BC018BE00E949201BE0183E0DF910E
:10071000CF910C9492010F931F93CF93DF938C0191
:10072000EB01682F86E00E94090161E0012B09F0CE
:1007300060E087E00E9409016C2F85E00E940901BA
:1007400061E0CD2B09F060E084E0DF91CF911F9153
:100750000F910C9409010F931F93CF93DF93EC013A
:100760008B0160E070E080E090E00E948B0360E02D
:1007700070E080E090E00E947E0368EE73E080E02D
:1007800090E00E94160260E670E08FE693E00E941F
:100790007E0364EF71E080E090E00E941602B801F1
:1007A000CE010E948B0360E670E08FE693E00E942A
:1007B0007E036CE271E080E090E0DF91CF911F91C9
:1007C0000F910C9416020F931F9390E0FC01E855D3
:1007D000FE4F6491FC01EC56FE4FE491F0E0EE0F09
:1007E000FF1FE657FE4F8591949100E412E42FE03D
:1007F00030E0462F0E949B0561157105810591052A
:1008000049F0DC01CB010196A11DB11DBC01CD0158
:100810009F7003C060E070E0CB011F910F910895BD
:10082000CF93DF93EC0188819981009711F00E94AA
:100830003D0C198218821D821C821B821A82DF9154
:10084000CF9108950E948C0D0F931F93CF93DF9348
:10085000EC0188819981009729F02A813B81261734
:10086000370788F48B016F5F7F4F0E94C60C00979B
:1008700061F0998388831B830A832C813D81232B1C
:1008800011F4FC01108281E001C080E0DF91CF9182
:100890001F910F910895EF92FF920F931F93CF93A3
:1008A000DF936115710511F480E01CC041155105FD
:1008B000C1F07B01EC018C819D818A01080F191F19
:1008C000B801CE010E942404882371F32881398164
:1008D0008C819D81B701820F931F0E94A30D1D8300
:1008E0000C8381E0DF91CF911F910F91FF90EF90EA
:1008F0000895CF93DF93EC016115710561F0FB0161
:1009000001900020E9F73197AF01461B570B0E9479
:100910004B04811103C0CE010E941004CE01DF916F
:10092000CF910895EF92FF920F931F93CF93DF9390
:10093000EC01198218821B821A821D821C826115A9
:10094000710521F18B01FB0101900020E9F731973E
:100950007F01E61AF70AB7010E942404811109C039
:10096000CE01DF91CF911F910F91FF90EF900C94EA
:100970001004FD82EC82B80188819981DF91CF91CA
:100980001F910F91FF90EF900C94A30DDF91CF91E9
:100990001F910F91FF90EF900895EF92FF920F93A8
:1009A0001F93CF93DF938C017B016115710569F073
:1009B000FB0101900020E9F73197EF01C61BD70B2F
:1009C000BE010E942404811104C0C8010E941004C9
:1009D00008C0F801D583C483B701808191810E944A
:1009E000A30DC801DF91CF911F910F91FF90EF9060
:1009F00008951F920F920FB60F9211242F933F93D9
:100A00008F939F93AF93BF938091EE019091EF01ED
:100A1000A091F001B091F1013091ED0123E0230F9D
:100A20002D3720F40196A11DB11D05C026E8230F26
:100A30000296A11DB11D2093ED018093EE019093CC
:100A4000EF01A093F001B093F1018091F201909138
:100A5000F301A091F401B091F5010196A11DB11D22
:100A60008093F2019093F301A093F401B093F50108
:100A7000BF91AF919F918F913F912F910F900FBE9A
:100A80000F901F9018951F920F920FB60F9211247E
:100A90002F933F934F935F936F937F938F939F9386
:100AA000AF93BF93EF93FF9388E491E00E94C50258
:100AB000FF91EF91BF91AF919F918F917F916F9136
:100AC0005F914F913F912F910F900FBE0F901F900C
:100AD00018951F920F920FB60F9211242F938F9398
:100AE0009F93EF93FF93E0915801F091590180811A
:100AF000E0915E01F0915F0182FD12C090818091D2
:100B000061018F5F8F7320916201821751F0E09134
:100B10006101F0E0E85BFE4F958F8093610101C0B9
:100B20008081FF91EF919F918F912F910F900FBE38
:100B30000F901F901895CF92DF92EF92FF920F9334
:100B40001F93E82FF92F05C0015011092109310920
:100B500061F1908196239417B9F305C001501109F2
:100B60002109310911F1908196239413F7CFC12CFB
:100B7000D12CE12CF12C0AC08FEFC81AD80AE80A50
:100B8000F80A0C151D052E053F0579F08081862396
:100B9000841791F36C2D7D2D8E2D9F2D1F910F911C
:100BA000FF90EF90DF90CF90089560E070E080E0DC
:100BB00090E01F910F91FF90EF90DF90CF900895FC
:100BC000CF93DF93CDB7DEB7AD970FB6F894DEBF06
:100BD0000FBECDBF789484B5826084BD84B581603A
:100BE00084BD85B5826085BD85B5816085BD8091F8
:100BF0006E00816080936E00109281008091810070
:100C00008260809381008091810081608093810067
:100C1000809180008160809380008091B100846029
:100C20008093B1008091B00081608093B00080918A
:100C30007A00846080937A0080917A008260809349
:100C40007A0080917A00816080937A0080917A00A6
:100C5000806880937A001092C100E0915801F09171
:100C6000590182E08083E0915401F0915501108296
:100C7000E0915601F09157018FEC80831092600152
:100C8000E0915C01F0915D0186E08083E0915A0182
:100C9000F0915B01808180618083E0915A01F09145
:100CA0005B01808188608083E0915A01F0915B0153
:100CB000808180688083E0915A01F0915B0180819E
:100CC0008F7D808361E089E00E94560160E08AE0C8
:100CD0000E94560161E08DE00E94560160E082E0D2
:100CE0000E94560161E08DE00E94560161E08BE0B8
:100CF0000E94560161E086E00E94560161E087E0B3
:100D00000E94560161E083E00E94560161E085E0A7
:100D10000E94560161E084E00E94560161E070E0AB
:100D200081E090E00E948B0360E070E080E090E062
:100D30000E947E0368E873E180E090E00E94160262
:100D400061E070E081E090E00E948B0360E670E07B
:100D50008FE693E00E947E0389E090E00E946003AA
:100D60008AE00E94E3030E94410A20E030E048E666
:100D700052E40E94280B6093E9017093EA0180938A
:100D8000EB019093EC018DE090E00E94600382E023
:100D90000E94E3030E94410A20E030E048E652E46A
:100DA0000E94280B6B017C016093E5017093E601C2
:100DB0008093E7019093E8018090E9019090EA0127
:100DC000A090EB01B090EC0120E030E0A901C5015A
:100DD000B4010E949A0B181654F420E030E040EA67
:100DE00051E4C501B4010E943A0A87FD14C020E015
:100DF00030E0A901C701B6010E949A0B18160CF049
:100E0000ADC020E030E040EA51E4C701B6010E94E5
:100E10003A0A87FFA3C068E171E0CE0188960E947C
:100E20009204A090E501B090E6010091E7011091D5
:100E3000E801C090E901D090EA01E090EB01F09068
:100E4000EC019601A701B501C8010E943A0A87FF8B
:100E500006C060E271E0CE0188960E94CD04960142
:100E6000A701B501C8010E949A0B181614F065017C
:100E700078011BA21AA21DA21CA21FA21EA28E01F3
:100E80000F5F1F4F22E044E0B601C7010E94E80750
:100E9000BC01CE0182960E94CD0467E271E0C801D8
:100EA0000E9492044CA55DA568A579A5C8010E9481
:100EB0004B04811103C0C8010E9410046DE371E06E
:100EC000CE0101960E9479048C014EA15FA16AA116
:100ED0007BA10E944B04811103C0C8010E94100431
:100EE00062E471E0C8010E947904FC0144815581EB
:100EF0006081718188E491E00E94500242E050E0FC
:100F000065E471E088E491E00E94500289819A8151
:100F10000E943D0C8AA19BA10E943D0C61E08DE0E6
:100F20000E9409018CA59DA5892B69F068E171E0FB
:100F300088A599A50E949A0D892B29F460E070E09C
:100F400081E090E004C061E070E080E090E00E9409
:100F5000AB0388A599A50E943D0C04C060E08DE01C
:100F60000E94090164E670E080E090E00E941602B1
:100F70000E945603E5CEE8E4F1E01382128288EE87
:100F800093E0A0E0B0E084839583A683B7838AE0F2
:100F900091E09183808385EC90E09587848784EC51
:100FA00090E09787868780EC90E0918B808B81EC36
:100FB00090E0938B828B82EC90E0958B848B86EC17
:100FC00090E0978B868B118E128E138E148E08955F
:100FD000EF920F931F93CF93DF93E80147FD02C079
:100FE00034E001C034E1042E000C550B57FF03C060
:100FF000519541955109E32E022F242FAE010E94F5
:101000000808CE01DF91CF911F910F91EF900895C5
:10101000A9E0B0E0EEE0F8E00C94F70A6A01122FC4
:10102000B02E2BE3201720F0FF24F394F00E02C023
:101030002CE3F22E0F2D27E0AE014F5F5F4F0E9491
:101040006209BC014981842F8970813031F0E1FC53
:1010500006C0E0FE06C090E205C09DE203C09BE230
:1010600001C090E05E2D507143FF3CC0911102C061
:1010700083E001C084E0811718F4212F281B01C0F0
:1010800020E051110BC0F601822F30E2882319F0C5
:1010900031938150FBCFC20ED11C20E0992329F05F
:1010A000D6019C93F60131966F01C6010396E2FECC
:1010B0000AC03EE4D6013C9341E411964C9311974B
:1010C00012963C9306C03EE6F601308341E641832A
:1010D0003283FC01322F40E2332309F442C04193B2
:1010E0003150FACF42FF44C0911102C083E001C0E9
:1010F00084E0811718F4212F281B01C020E0511132
:101100000BC0F601822F30E2882319F03193815011
:10111000FBCFC20ED11C20E0992329F0D6019C936D
:10112000F60131966F01C6010396E2FE0BC039E469
:10113000D6013C933EE411963C93119736E4129607
:101140003C9307C039E6F60130833EE6318336E64C
:101150003283FC01322F40E2332319F041933150A6
:10116000FBCFFC01E20FF11D10828EEF9FEFA6C0B6
:1011700021E030E0911102C020E030E016161706A1
:101180001CF4FB01319602C0E1E0F0E02E0F3F1F9E
:10119000BB2021F0EB2DF0E0319602C0E0E0F0E062
:1011A0002E0F3F1FE12FF0E02E173F071CF4121BFC
:1011B000212F01C020E08E2D887159F4F601822F75
:1011C00030E2882319F031938150FBCFC20ED11C3D
:1011D00020E0992329F0D6019C93F60131966F0106
:1011E00051110BC0F601822F90E3882319F09193DF
:1011F0008150FBCFC20ED11C20E00F2D060F9A812B
:10120000342F307144FF03C0913309F4015010169C
:1012100024F4093018F008E001C001E0AB0177FFC9
:1012200002C040E050E0FB01E41BF50BA1E0B0E0A0
:10123000AC0FBD1FEA0FFB1F8EE2A82E4B01801AD8
:1012400091080B2D10E01195019511094F3FBFEF4B
:101250005B0721F4D601AC9211966D0164177507F6
:101260002CF08416950614F4818101C080E341506E
:1012700051093196D60111967D014017510724F08E
:10128000D6018C936701E2CF6417750739F4963362
:1012900020F4953319F4311101C081E3F601808304
:1012A000F701822F90E2882319F091938150FBCFB0
:1012B000F701E20FF11D108280E090E02996ECE04A
:1012C0000C94130B283008F027E03327DA01990F2C
:1012D000311D87FD916000966105710539F432601A
:1012E0002E5F3D9330E32A95E1F708959F3F30F05C
:1012F00080387105610509F03C5F3C5F3D9391309A
:1013000008F08068911DDF93CF931F930F93FF9296
:10131000EF92192F987F9695E92F96959695E90F5C
:10132000FF27EE53FF4F99273327EE24FF24A70111
:10133000E70105900894079428F4360FE71EF81E7D
:10134000491F511D660F771F881F991F0694A1F72B
:101350000590079428F4E70EF81E491F561FC11D7B
:10136000770F881F991F661F0694A1F705900794B1
:1013700028F4F80E491F561FC71FD11D880F991F4B
:10138000661F771F0694A1F70590079420F4490F74
:10139000561FC71FD81F990F661F771F881F0694F7
:1013A000A9F784911095177041F0D695C795579578
:1013B0004795F794E7941A95C1F7E8E6F0E068944A
:1013C0001590159135916591959105907FE27395F2
:1013D000E118F10A430B560BC90BD009C0F7E10C19
:1013E000F11E431F561FC91FD01D7EF4703311F428
:1013F0008A95E6CFE894015030F0080F0AF40027F0
:10140000021708F4202F2395022F7A3328F079E36E
:101410007D932A95E9F710C07D932A9589F6069465
:1014200097956795379517951794E118F10A430B2F
:10143000560BC90BD00998F023957E9173957A339A
:1014400008F070E37C932013B8F77E9170617D9370
:1014500030F0839571E37D9370E32A95E1F71124D1
:10146000EF90FF900F911F91CF91DF91992787FD0A
:10147000909508950E947C0A08F481E00895E8940C
:1014800009C097FB3EF490958095709561957F4FCC
:101490008F4F9F4F9923A9F0F92F96E9BB2793957A
:1014A000F695879577956795B795F111F8CFFAF48A
:1014B000BB0F11F460FF1BC06F5F7F4F8F4F9F4FBB
:1014C00016C0882311F096E911C0772321F09EE819
:1014D000872F762F05C0662371F096E8862F70E07F
:1014E00060E02AF09A95660F771F881FDAF7880F59
:1014F0009695879597F90895990F0008550FAA0BAF
:10150000E0E8FEEF16161706E807F907C0F0121616
:101510001306E407F50798F0621B730B840B950B19
:1015200039F40A2661F0232B242B252B21F408956E
:101530000A2609F4A140A6958FEF811D811D08950B
:1015400097F99F6780E870E060E008959FEF80EC76
:10155000089500240A941616170618060906089519
:1015600000240A9412161306140605060895092E7F
:101570000394000C11F4882352F0BB0F40F4BF2BEE
:1015800011F460FF04C06F5F7F4F8F4F9F4F08952E
:1015900057FD9058440F551F59F05F3F71F0479524
:1015A000880F97FB991F61F09F3F79F08795089509
:1015B000121613061406551FF2CF4695F1DF08C028
:1015C000161617061806991FF1CF86957105610545
:1015D00008940895E894BB2766277727CB0197F9ED
:1015E00008952F923F924F925F926F927F928F92C7
:1015F0009F92AF92BF92CF92DF92EF92FF920F93A2
:101600001F93CF93DF93CDB7DEB7CA1BDB0B0FB6AB
:10161000F894DEBF0FBECDBF09942A883988488868
:101620005F846E847D848C849B84AA84B984C884FE
:10163000DF80EE80FD800C811B81AA81B981CE0FF5
:10164000D11D0FB6F894DEBF0FBECDBFED010895DA
:101650000E943C0B0C94B70A0E94B00A58F00E94FA
:10166000A90A40F029F45F3F29F00C94A00A511117
:101670000C94EB0A0C94A60A0E94C80A68F39923FA
:10168000B1F3552391F3951B550BBB27AA2762177E
:101690007307840738F09F5F5F4F220F331F441F8B
:1016A000AA1FA9F335D00E2E3AF0E0E832D09150BF
:1016B0005040E695001CCAF72BD0FE2F29D0660FAC
:1016C000771F881FBB1F261737074807AB07B0E8EF
:1016D00009F0BB0B802DBF01FF2793585F4F3AF0F5
:1016E0009E3F510578F00C94A00A0C94EB0A5F3FE2
:1016F000E4F3983ED4F3869577956795B795F7957B
:101700009F5FC9F7880F911D9695879597F9089562
:10171000E1E0660F771F881FBB1F621773078407FE
:10172000BA0720F0621B730B840BBA0BEE1F88F70D
:10173000E09508950E947C0A08F48FEF0895EE0F5B
:10174000FF1F0590F491E02D09940F931F93CF9301
:10175000DF938230910510F482E090E0E091F8018F
:10176000F091F90120E030E0A0E0B0E0309719F10D
:10177000408151810281138148175907C8F08417AD
:10178000950769F4109731F012960C9312971396FF
:101790001C9327C00093F8011093F90122C0211572
:1017A000310519F04217530718F49A01BD01EF01F2
:1017B000DF01F801DBCF21153105F9F0281B390BCA
:1017C0002430310580F48A819B816115710521F0F7
:1017D000FB019383828304C09093F9018093F80105
:1017E000FE01329644C0FE01E20FF31F81939193F4
:1017F00022503109398328833AC02091F601309173
:10180000F701232B41F42091020130910301309321
:10181000F7012093F601209100013091010121157B
:10182000310541F42DB73EB74091040150910501B7
:10183000241B350BE091F601F091F701E217F30755
:10184000A0F42E1B3F0B2817390778F0AC014E5F30
:101850005F4F2417350748F04E0F5F1F5093F70175
:101860004093F6018193919302C0E0E0F0E0CF0154
:10187000DF91CF911F910F910895CF93DF93009740
:1018800009F481C0FC01329713821282A091F80101
:10189000B091F901109781F420813181820F931F5B
:1018A0002091F6013091F7012817390751F5F0938F
:1018B000F701E093F60167C0ED0120E030E0CE17BC
:1018C000DF0740F44A815B819E0141155105F1F02B
:1018D000EA01F5CFD383C28340815181840F951FE4
:1018E000C817D90759F488819981840F951F0296EA
:1018F000918380838A819B81938382832115310523
:1019000029F4F093F901E093F8013DC0E901FB836C
:10191000EA8349915991C40FD51FEC17FD0761F473
:1019200080819181840F951F0296E90199838883B4
:10193000828193819B838A83E0E0F0E012968D910F
:101940009C911397009719F0FD01DC01F7CF8D9161
:101950009C9111979D012E5F3F4F820F931F209105
:10196000F6013091F7012817390769F4309729F407
:101970001092F9011092F80102C013821282B09302
:10198000F701A093F601DF91CF910895A0E0B0E0B8
:10199000ECECFCE00C94F50AEC01009721F4CB018F
:1019A0000E94A50BB4C0FC01E60FF71F9C0122505A
:1019B0003109E217F30708F4A8C0D9010D911C9171
:1019C000119706171707B0F00530110508F49BC0F2
:1019D000C80104978617970708F495C002501109AB
:1019E000061B170B019311936D937C93CF010E94FB
:1019F0003D0C89C05B01A01AB10A4C01800E911EFA
:101A0000A091F801B091F901612C712CE12CF12C1D
:101A1000109709F446C08D919C911197A815B905AE
:101A2000B1F56C0142E0C40ED11CCA14DB0478F19C
:101A30004C018A189B08640142E0C40ED11C129626
:101A4000BC9012971396AC91B5E0CB16D10440F040
:101A5000B282A38391828082D9016D937C9309C065
:101A60000E5F1F4F800F911FF90191838083EB2D33
:101A7000FA2FE114F10431F0D7011396FC93EE93A1
:101A8000129741C0F093F901E093F8013CC0681649
:101A9000790608F43C017D0112960D90BC91A02DB1
:101AA000B7CF8091F6019091F70188169906E1F47D
:101AB00066167706C8F480910001909101010097A5
:101AC00041F48DB79EB74091040150910501841BEC
:101AD000950BE817F907C8F4F093F701E093F601C6
:101AE000F901718360830FC0CB010E94A50B7C01BB
:101AF000009759F0A801BE010E94910DCE010E94ED
:101B00003D0CC70104C0CE0102C080E090E0CDB71B
:101B1000DEB7EEE00C94110B81E090E0F8940C94A9
:101B2000AA0DFB01DC0102C001900D924150504012
:101B3000D8F70895FB01DC018D9101908019011007
:101B4000D9F3990B0895FB01DC0101900D9200205F
:081B5000E1F70895F894FFCFBE
:101B58000000FA01800000000000E70250027E0247
:101B68003403AF028D02A102647265617074610072
:101B78007374616E6761006F62737461636F6C2068
:101B88006C612073656E7A6F72756C2000206C61D1
:081B98002000636D000D0A003E
:00000001FF
