:100000000C945C000C9479000C9479000C947900A9
:100010000C9479000C9479000C9479000C9479007C
:100020000C9479000C9479000C9479000C9479006C
:100030000C9479000C9479000C9479000C9479005C
:100040000C940B010C9479000C9479000C947900B9
:100050000C9479000C9479000C9479000C9479003C
:100060000C9479000C947900000000080002010053
:100070000003040700000000000000000000000072
:10008000250028002B0000000000240027002A0083
:10009000040404040404040402020202020203032E
:1000A0000303030301020408102040800102040836
:1000B000102001020408102011241FBECFEFD8E049
:1000C000DEBFCDBF11E0A0E0B1E0ECE7F4E002C09C
:1000D00005900D92A230B107D9F721E0A2E0B1E07E
:1000E00001C01D92AD30B207E1F70E9455010C949A
:1000F0003C020C94000090E0FC01EC55FF4F249171
:10010000FC01E057FF4F8491882399F090E0880F1D
:10011000991FFC01EA57FF4FA591B491FC01E458E7
:10012000FF4F859194918FB7F894EC91E22BEC936B
:100130008FBF089590E0FC01E859FF4F3491FC0116
:10014000EC55FF4F2491FC01E057FF4FE491EE2363
:1001500009F43BC0332339F1333091F038F43130B6
:10016000A9F0323001F584B58F7D12C0373091F09F
:100170003830A1F03430B9F4809180008F7D03C015
:10018000809180008F77809380000DC084B58F7739
:1001900084BD09C08091B0008F7703C08091B0000A
:1001A0008F7D8093B000F0E0EE0FFF1FE458FF4F0B
:1001B000A591B4918FB7F894EC91611103C020958B
:1001C0002E2301C02E2B2C938FBF08953FB7F89498
:1001D0008091090190910A01A0910B01B0910C014D
:1001E00026B5A89B05C02F3F19F00196A11DB11D92
:1001F0003FBFBA2FA92F982F8827820F911DA11DCD
:10020000B11DBC01CD0142E0660F771F881F991F09
:100210004A95D1F708951F920F920FB60F921124AD
:100220002F933F938F939F93AF93BF93809105013B
:1002300090910601A0910701B0910801309104014D
:1002400023E0230F2D3720F40196A11DB11D05C019
:1002500026E8230F0296A11DB11D2093040180936F
:10026000050190930601A0930701B09308018091C6
:10027000090190910A01A0910B01B0910C01019626
:10028000A11DB11D8093090190930A01A0930B0158
:10029000B0930C01BF91AF919F918F913F912F919E
:1002A0000F900FBE0F901F901895789484B58260C0
:1002B00084BD84B5816084BD85B5826085BD85B50A
:1002C000816085BD80916E00816080936E00109288
:1002D0008100809181008260809381008091810003
:1002E0008160809381008091800081608093800094
:1002F0008091B10084608093B1008091B0008160F2
:100300008093B00080917A00846080937A0080911D
:100310007A00826080937A0080917A008160809375
:100320007A0080917A00806880937A001092C100F0
:1003300089E00E947B0001E710E090E0E92E90E068
:10034000F92EC0910201D091030189E00E947B0047
:10035000209711F460E004C0CF3FD10529F461E09B
:1003600089E00E949A0042C0F80184918330F9F03C
:1003700048F48130B9F08230A1F584B5806284BD43
:10038000C8BD34C08730E9F0883019F1843049F5B0
:1003900080918000806280938000D0938B00C09316
:1003A0008A0024C084B5806884BDC7BD1FC0809109
:1003B0008000806880938000D0938900C09388007B
:1003C00015C08091B00080688093B000C093B300E6
:1003D0000DC08091B00080628093B000C093B400E3
:1003E00005C0C038D1050CF0BACFB4CF20910001C0
:1003F000309101018091020190910301820F931FBE
:10040000909303018093020101978E3F910538F08C
:1004100031952195310930930101209300010E940B
:10042000E6002B013C018EE1882E912CA12CB12CF1
:100430000E94E600DC01CB0184199509A609B709E1
:10044000883E9340A105B10558F0F1E08F1A91085C
:10045000A108B10828EE420E23E0521E611C711C57
:1004600081149104A104B10419F7E114F10409F411
:0C04700068CF0E94000065CFF894FFCF19
:02047C00050079
:00000001FF
