:100000000C94DF000C9407010C9407010C94070179
:100010000C9407010C9407010C9407010C94070140
:100020000C9407010C9407010C9407010C94070130
:100030000C9407010C9407010C9407010C94070120
:100040000C9457040C9407010C94C7040C94A1045D
:100050000C9407010C9407010C9407010C94070100
:100060000C9407010C94070100407A10F35A00A089
:10007000724E18090010A5D4E80000E87648170071
:1000800000E40B54020000CA9A3B000000E1F505B1
:10009000000080969800000040420F000000A086FB
:1000A00001000000102700000000E803000000002D
:1000B0006400000000000A000000000001000000D1
:1000C00000002C76D888DC674F0823DFC1DFAE59EB
:1000D000E1B1B796E5E3E453C63AE651997696E87E
:1000E000E6C28426EB898C9B62ED407C6FFCEFBC02
:1000F0009C9F40F2BAA56FA5F490055A2AF75C932D
:100100006B6CF9676DC11BFCE0E40D47FEF520E662
:10011000B500D0ED902E0300943577050080841E45
:10012000080000204E0A000000C80C333333330FA0
:10013000986E12831141EF8D2114893BE65516CF3D
:10014000FEE6DB18D1844B381BF77C1D901DA4BB49
:10015000E424203284725E228100C9F124ECA1E5FE
:100160003D270000000023002600290000000000B9
:10017000240027002A0000000000250028002B0092
:10018000040404040404040402020202020203033D
:100190000303030301020408102040800102040845
:1001A00010200102040810200000000800020100D5
:1001B00000030407000000000000000049081124AB
:1001C0001FBECFEFD8E0DEBFCDBF22E0A2E5B1E099
:1001D00001C01D92A430B207E1F711E0A0E0B1E048
:1001E000ECE8FFE102C005900D92A235B107D9F706
:1001F00010E0CFEDD0E004C02197FE010E94B20DC7
:10020000CE3DD107C9F70E943E050C94C40F0C9453
:10021000000090E0FC01E855FE4F3491FC01EC56E3
:10022000FE4F2491FC01E058FE4FE491EE2309F4C7
:100230003BC0332339F1333091F038F43130A9F039
:10024000323001F584B58F7D12C0373091F03830EF
:10025000A1F03430B9F4809180008F7D03C080918B
:1002600080008F77809380000DC084B58F7784BD28
:1002700009C08091B0008F7703C08091B0008F7D5E
:100280008093B000F0E0EE0FFF1FEA58FE4FA591FB
:10029000B4918FB7F894EC91611103C020952E238F
:1002A00001C02E2B2C938FBF0895CF93DF9390E046
:1002B000FC01EC56FE4F2491FC01E058FE4F849166
:1002C000882361F190E0880F991FFC01E459FE4FEB
:1002D000C591D491FC01EA58FE4FA591B4916111EA
:1002E00009C09FB7F8948881209582238883EC9178
:1002F0002E230BC0623061F49FB7F8943881822FAF
:10030000809583238883EC912E2B2C939FBF06C06E
:100310008FB7F894E8812E2B28838FBFDF91CF9180
:1003200008953FB7F89480915F0190916001A0918A
:100330006101B091620126B5A89B05C02F3F19F05D
:100340000196A11DB11D3FBFBA2FA92F982F882755
:10035000820F911DA11DB11DBC01CD0142E0660FB0
:10036000771F881F991F4A95D1F70895CF92DF9282
:10037000EF92FF920F931F93CF93DF936C017A015B
:100380008B01C0E0D0E0CE15DF0589F0D8016D917A
:100390008D01D601ED91FC910190F081E02DC60117
:1003A0000995892B11F47E0102C02196ECCFC7017B
:1003B000DF91CF911F910F91FF90EF90DF90CF9041
:1003C0000895CF93DF93FC01448155816081718151
:1003D00083E691E00E94B601EC0142E050E068E162
:1003E00071E083E691E00E94B6018C0F9D1FDF91C2
:1003F000CF910895089580E090E00895FC01538D19
:10040000448D252F30E0842F90E0821B930B5417EE
:1004100010F0CF96089501970895FC01918D828D7B
:10042000981761F0828DDF01A80FB11D5D968C9148
:10043000928D9F5F9F73928F90E008958FEF9FEF53
:100440000895FC01918D828D981731F0828DE80F0F
:10045000F11D858D90E008958FEF9FEF0895FC01C9
:10046000918D228D892F90E0805C9F4F821B910996
:100470008F739927089583E691E00E942F0221E06F
:10048000892B09F420E0822F0895FC01848DDF017F
:10049000A80FB11DA35ABF4F2C91848D90E00196F7
:1004A0008F739927848FA689B7892C93A089B189E6
:1004B0008C9180648C93938D848D981306C00288F0
:1004C000F389E02D80818F7D80830895EF92FF92E4
:1004D0000F931F93CF93DF93EC0181E0888F9B8D67
:1004E0008C8D981305C0E889F989808185FD24C029
:1004F000F62E0B8D10E00F5F1F4F0F731127E02EAC
:100500008C8DE8120CC00FB607FCFACFE889F98988
:10051000808185FFF5CFCE010E944502F1CF8B8D02
:10052000FE01E80FF11DE35AFF4FF0820B8FEA89BD
:10053000FB898081806207C0EE89FF896083E8893A
:10054000F98980818064808381E090E0DF91CF91A0
:100550001F910F91FF90EF900895CF93DF93EC01DF
:10056000888D8823C9F0EA89FB89808185FD05C0D3
:10057000A889B9898C9186FD0FC00FB607FCF5CF0D
:10058000808185FFF2CFA889B9898C9185FFEDCF55
:10059000CE010E944502E7CFDF91CF91089580E020
:1005A00090E0892B29F00E943B0281110C940000FD
:1005B00008950E94AF0F0F931F93CF93DF93EC0129
:1005C00088819981009729F02A813B812617370776
:1005D00088F48B016F5F7F4F0E94E50E009761F0FA
:1005E000998388831B830A832C813D81232B11F4FB
:1005F000FC01108281E001C080E0DF91CF911F916A
:100600000F910895EF92FF920F931F93CF93DF9373
:10061000FC01248135816115710511F480E019C058
:1006200041155105A9F07B01EC018A01020F131F4E
:10063000B8010E94DB02882389F3288139818C81EB
:100640009D81B701820F931F0E94BD0F1D830C83F4
:1006500081E0DF91CF911F910F91FF90EF9008956E
:10066000CF93DF93EC0188819981009711F00E946C
:100670004D0E198218821D821C821B821A82DF9104
:10068000CF910895CF93DF93EC016115710561F06F
:10069000FB0101900020E9F73197AF01461B570B92
:1006A0000E940203811103C0CE010E943003CE01DB
:1006B000DF91CF910895CF93DF93EC01FB0144814B
:1006C0005581608171810E940203811103C0CE01B6
:1006D0000E943003CE01DF91CF910895EF92FF92F7
:1006E0000F931F93CF93DF93EC01198218821B8223
:1006F0001A821D821C826115710521F18B01FB019B
:1007000001900020E9F731977F01E61AF70AB70157
:100710000E94DB02811109C0CE01DF91CF911F91B0
:100720000F91FF90EF900C943003FD82EC82B801A2
:1007300088819981DF91CF911F910F91FF90EF9068
:100740000C94BD0FDF91CF911F910F91FF90EF900F
:100750000895EF92FF920F931F93CF93DF938C0135
:100760007B016115710569F0FB0101900020E9F73B
:100770003197EF01C61BD70BBE010E94DB0281112E
:1007800004C0C8010E94300308C0F801D583C483A7
:10079000B701808191810E94BD0FC801DF91CF9187
:1007A0001F910F91FF90EF900895FC01808191813E
:1007B0000C944D0EEF92FF920F931F93CF93DF9304
:1007C000CDB7DEB7A1970FB6F894DEBF0FBECDBF91
:1007D0007C01CB01BA01F7011182108213821282CF
:1007E0001582148242E0420F8E010F5F1F4F0E945C
:1007F0007608BC01C7010E94A903A1960FB6F89420
:10080000DEBF0FBECDBFDF91CF911F910F91FF9043
:10081000EF900895FF920F931F93CF93DF93F82EDD
:10082000EB0160E00E94090103E010E0C8010197BC
:10083000F1F761E08F2D0E94090183E290E00197BA
:10084000F1F760E08F2D0E940901C8010197F1F7CF
:10085000CE019927FC01EC56FE4F6491FC01E05853
:10086000FE4FE491F0E0EE0FFF1FEE59FE4F859131
:10087000949100E412E42FE030E0462F0E94F90446
:10088000611571058105910549F0DC01CB010196E7
:10089000A11DB11DBC01CD019F7003C060E070E0DF
:1008A000CB01DF91CF911F910F91FF9008951F927F
:1008B0000F920FB60F9211242F933F938F939F9314
:1008C000AF93BF9380915B0190915C01A0915D011A
:1008D000B0915E0130915A0123E0230F2D3720F4AF
:1008E0000196A11DB11D05C026E8230F0296A11D8A
:1008F000B11D20935A0180935B0190935C01A093FA
:100900005D01B0935E0180915F0190916001A091C3
:100910006101B09162010196A11DB11D80935F013B
:1009200090936001A0936101B0936201BF91AF9178
:100930009F918F913F912F910F900FBE0F901F901D
:1009400018951F920F920FB60F9211242F933F9379
:100950004F935F936F937F938F939F93AF93BF93C7
:10096000EF93FF9383E691E00E944502FF91EF91A0
:10097000BF91AF919F918F917F916F915F914F91B7
:100980003F912F910F900FBE0F901F9018951F92BF
:100990000F920FB60F9211242F938F939F93EF9383
:1009A000FF93E0917301F09174018081E0917901EE
:1009B000F0917A0182FD12C0908180917C018F5F5D
:1009C0008F7320917D01821751F0E0917C01F0E05E
:1009D000ED59FE4F958F80937C0101C08081FF917E
:1009E000EF919F918F912F910F900FBE0F901F90BD
:1009F0001895CF92DF92EF92FF920F931F93E82FFB
:100A0000F92F05C0015011092109310961F19081C7
:100A100096239417B9F305C0015011092109310932
:100A200011F1908196239413F7CFC12CD12CE12C96
:100A3000F12C0AC08FEFC81AD80AE80AF80A0C1578
:100A40001D052E053F0579F080818623841791F3DB
:100A50006C2D7D2D8E2D9F2D1F910F91FF90EF906E
:100A6000DF90CF90089560E070E080E090E01F910B
:100A70000F91FF90EF90DF90CF900895CF93DF9389
:100A8000CDB7DEB7AE970FB6F894DEBF0FBECDBFC1
:100A9000789484B5826084BD84B5816084BD85B559
:100AA000826085BD85B5816085BD80916E00816065
:100AB00080936E001092810080918100826080930B
:100AC000810080918100816080938100809180000D
:100AD0008160809380008091B10084608093B10038
:100AE0008091B00081608093B00080917A00846032
:100AF00080937A0080917A00826080937A0080915E
:100B00007A00816080937A0080917A008068809377
:100B10007A001092C100E0917301F091740182E0BB
:100B20008083E0916F01F09170011082E09171017A
:100B3000F09172018FEC808310927B01E09177013C
:100B4000F091780186E08083E0917501F091760163
:100B5000808180618083E0917501F09176018081D0
:100B600088608083E0917501F091760180818068D2
:100B70008083E0917501F091760180818F7D808383
:100B800061E089E00E94550160E08AE00E94550121
:100B900061E08DE00E94550160E082E00E94550115
:100BA00061E086E00E9455016AE070E089E090E033
:100BB0000E940A044B015C010E94440B20E030E0DB
:100BC00048E652E40E94050D162F072FF82EE92E55
:100BD00022E0462F572F682F792FCE0183960E944F
:100BE000DA031AA619A61CA61BA61EA61DA62AE095
:100BF000AE014F5F5F4FC501B4010E949608BE0170
:100C00006F5F7F4FCE0189960E94A9036BE171E06F
:100C1000CE0101960E946E03BE01675D7F4FCE013B
:100C200001960E945B036CE271E00E944203BE01E8
:100C30006D5D7F4F0E945B0362E371E00E9442039F
:100C40000E94E101CE0101960E94D503CE01899652
:100C50000E94D503CE0183960E94D50320E030E0A8
:100C6000A901612F702F8F2D9E2D0E94AD0D18169A
:100C70000CF03FC0A0905601B0905701C0905801B1
:100C8000D09059019501A601612F702F8F2D9E2DB7
:100C90000E94980C2B013C0120E030E0A9010E9449
:100CA000AD0D18165CF420E030E048EC52E4C301CE
:100CB000B2010E94AD0D1816C4F00AC020E030E069
:100CC00048EC52ECC301B2010E943D0B87FD0DC000
:100CD000812F902FAF2DBE2D8093560190935701F9
:100CE000A0935801B093590104C01A2D0B2DFC2C70
:100CF000ED2C62E070E08DE090E00E940A042B0190
:100D00003C010E94440B20E030E048E652E40E949F
:100D1000050DD62EC72EB82EA92E22E0462F572F0E
:100D2000682F792FCE0183960E94DA031AA619A69E
:100D30001CA61BA61EA61DA62AE0AE014F5F5F4F94
:100D4000C301B2010E949608BE016F5F7F4FCE01C2
:100D500089960E94A90365E371E0CE0101960E9485
:100D60006E03BE01675D7F4FCE0101960E945B035B
:100D70006CE271E00E944203BE016D5D7F4F0E94F4
:100D80005B0362E371E00E9442030E94E101CE0135
:100D900001960E94D503CE0189960E94D503CE010B
:100DA00083960E94D50320E030E0A9016D2D7C2DB3
:100DB0008B2D9A2D0E94AD0D18160CF04BC0209073
:100DC000520130905301809054019090550191014F
:100DD000A4016D2D7C2D8B2D9A2D0E94980C2B013A
:100DE0003C0120E030E0A9010E94AD0D18165CF432
:100DF00020E030E048EC52E4C301B2010E94AD0DA6
:100E0000181624F10AC020E030E048EC52ECC3018F
:100E1000B2010E943D0B87FD19C08D2D9C2DAB2D7D
:100E2000BA2D8093520190935301A0935401B09333
:100E3000550120E030E0A901612F702F8F2D9E2DEC
:100E40000E94AD0D18160CF417C127C0D22CC32C6C
:100E5000B82CA92C20E030E0A901612F702F8F2D34
:100E60009E2D0E94AD0D181664F420E030E040EA9B
:100E700051E4612F702F8F2D9E2D0E943D0B87FD19
:100E800018C020E030E0A9016D2D7C2D8B2D9A2D0E
:100E90000E94AD0D18160CF0BDC020E030E040EA15
:100EA00051E46D2D7C2D8B2D9A2D0E943D0B87FFDB
:100EB000B1C02D2D3C2D4B2D5A2D612F702F8F2D14
:100EC0009E2D0E943D0B87FD04C0ED2D3C2DC501DC
:100ED00003C0E12F302FC70122E04E2F532F692F7F
:100EE000782FCE0101960E94DA0365E471E0CE010D
:100EF00083960E946E03BE016F5F7F4FCE01839683
:100F00000E945B0362E371E00E9442030E94E101E0
:100F1000CE0183960E94D503CE0101960E94D5038F
:100F20002D2D3C2D4B2D5A2D612F702F8F2D9E2D49
:100F30000E943D0B87FF05C0212F302F4F2D5E2DC6
:100F400004C02D2D3C2D4B2D5A2D60E070E080EA21
:100F500091E40E94980C20E030E040E451E40E94CB
:100F6000A30B20E030E040E850E40E94990C0E947E
:100F7000770D8B0161E086E00E9455010115110596
:100F800009F44CC00F3F110511F461E048C0EEEACE
:100F9000F1E084918330F9F048F48130B9F0823087
:100FA000A1F584B5806284BD08BD3CC08730E9F0FE
:100FB000883019F1843049F58091800080628093F7
:100FC000800010938B0000938A002CC084B5806849
:100FD00084BD07BD27C08091800080688093800019
:100FE00010938900009388001DC08091B000806834
:100FF0008093B0000093B30015C08091B000806270
:101000008093B0000093B4000DC0003811050CF0BF
:10101000BCCF04C061E086E00E94550160E086E03C
:101020000E9409010E9491014B015C0188EEC82ECB
:1010300083E0D82EE12CF12C0E949101DC01CB0140
:1010400088199909AA09BB09883E9340A105B105F1
:1010500058F0F1E0CF1AD108E108F10828EE820E2D
:1010600023E0921EA11CB11CC114D104E104F104BF
:1010700019F70E94CF0298CD20E030E040EA51E419
:10108000612F702F8F2D9E2D0E943D0B87FD11CF5C
:1010900004CFE3E6F1E01382128288EE93E0A0E051
:1010A000B0E084839583A683B7838AE091E091833F
:1010B000808385EC90E09587848784EC90E0978727
:1010C000868780EC90E0918B808B81EC90E0938B15
:1010D000828B82EC90E0958B848B86EC90E0978BF2
:1010E000868B118E128E138E148E0895EF920F93AD
:1010F0001F93CF93DF93E80147FD02C034E001C0A6
:1011000034E1E42F440FFF0BF7FF03C0F195E195A5
:10111000F109E32E022F2E2FAE010E94C708CE0147
:10112000DF91CF911F910F91EF900895BB272A3047
:1011300051F4992342F4BDE29095809570956195A4
:101140007F4F8F4F9F4F0C94A608BB27FA01A62F05
:101150006217710581059105330B30FB66F0AA27F4
:10116000660F771F881F991FAA1FA21710F0A21BD6
:1011700063953850A9F7A05DAA3308F0A95DA19343
:1011800036F7B111B1931082CA010C942D0B4F9216
:101190005F926F927F929F92AF92BF92CF92DF92B7
:1011A000EF92FF920F931F93CF93DF93CDB7DEB7EC
:1011B00029970FB6F894DEBF0FBECDBF6A01122F7C
:1011C000B02E2BE3201720F0FF24F394F00E02C082
:1011D000BCE3FB2E0F2D27E0AE014F5F5F4F0E9457
:1011E000550AAC018981982F9970913031F0E1FC5A
:1011F00006C0E0FE06C090E205C09DE203C09BE28F
:1012000001C090E0EE2DE07183FF3CC0911102C05F
:1012100083E001C084E0811718F4212F281B01C04E
:1012200020E0E1110BC0F601822F30E2882319F093
:1012300031938150FBCFC20ED11C20E0992329F0BD
:10124000D6019C93F60131966F01C6010396E2FE2A
:101250000AC03EE4D6013C9341E411964C931197A9
:1012600012963C9306C03EE6F601308341E6418388
:101270003283FC01322F40E2332309F442C0419310
:101280003150FACF82FF44C0911102C083E001C007
:1012900084E0811718F4212F281B01C020E0E11100
:1012A0000BC0F601822F30E2882319F03193815070
:1012B000FBCFC20ED11C20E0992329F0D6019C93CC
:1012C000F60131966F01C6010396E2FE0BC039E4C8
:1012D000D6013C933EE411963C93119736E4129666
:1012E0003C9307C039E6F60130833EE6318336E6AB
:1012F0003283FC01322F40E2332319F04193315005
:10130000FBCFFC01E20FF11D10828EEF9FEFB7C003
:10131000F1E0911101C0F0E06F2F70E01416150696
:1013200024F49A012F5F3F4F02C021E030E0260FE6
:10133000371FBB2029F06B2D70E06F5F7F4F02C01D
:1013400060E070E0260F371F612F70E02617370727
:101350001CF4121B212F01C020E03E2D387159F4DE
:10136000D601322F60E2332319F06D933150FBCF59
:10137000C20ED11C20E0FF2331F0D6019C93B601B0
:101380006F5F7F4F6B01E1110BC0F601922F30E3CD
:10139000992319F031939150FBCFC20ED11C20E05C
:1013A0009F2D940F3A81782F7071A72E84FF03C070
:1013B000313309F49150191624F4993018F098E05B
:1013C00001C091E0E42F852F57FF02C0E0E080E0EC
:1013D0006E2F782FE0E0F0E0AEE29A2E3A01691A23
:1013E00071082A01461A570A0B2D10E01195019534
:1013F00011096F3F8FEF780729F4D6019C92C6013F
:1014000001966C014617570784F0661677066CF450
:101410007F01E40CF51CA1E0B0E0AC0FBD1FEA0EAB
:10142000FB1ED7011196BC9002C090E3B92E61500B
:1014300071093196C60101967C016017710724F08D
:10144000D601BC926C01D5CF6417750741F43633D1
:1014500020F4353321F4A11002C081E3B82EF60147
:10146000B082F701822F90E2882319F09193815086
:10147000FBCFF701E20FF11D108280E090E029968A
:101480000FB6F894DEBF0FBECDBFDF91CF911F9195
:101490000F91FF90EF90DF90CF90BF90AF909F9013
:1014A0007F906F905F904F900895283008F027E06C
:1014B0003327DA01990F311D87FD91600096610590
:1014C000710539F432602E5F3D9330E32A95E1F7E0
:1014D00008959F3F30F080387105610509F03C5F49
:1014E0003C5F3D93913008F08068911DDF93CF936E
:1014F0001F930F93FF92EF92192F987F9695E92FE4
:1015000096959695E90FFF27EE53FF4F99273327BE
:10151000EE24FF24A701E70105900894079428F41E
:10152000360FE71EF81E491F511D660F771F881FD3
:10153000991F0694A1F70590079428F4E70EF81E6A
:10154000491F561FC11D770F881F991F661F0694DC
:10155000A1F70590079428F4F80E491F561FC71FDE
:10156000D11D880F991F661F771F0694A1F705905C
:10157000079420F4490F561FC71FD81F990F661FE5
:10158000771F881F0694A9F784911095177041F072
:10159000D695C79557954795F794E7941A95C1F74F
:1015A000E8E6F0E068941590159135916591959174
:1015B00005907FE27395E118F10A430B560BC90BB6
:1015C000D009C0F7E10CF11E431F561FC91FD01DE3
:1015D0007EF4703311F48A95E6CFE894015030F030
:1015E000080F0AF40027021708F4202F2395022F72
:1015F0007A3328F079E37D932A95E9F710C07D933B
:101600002A9589F6069497956795379517951794B7
:10161000E118F10A430B560BC90BD00998F023953A
:101620007E9173957A3308F070E37C932013B8F7BA
:101630007E9170617D9330F0839571E37D9370E3CB
:101640002A95E1F71124EF90FF900F911F91CF9110
:10165000DF91992787FD90950895DC01FC01672FA4
:1016600071917723E1F7329704C07C916D93708379
:101670006291AE17BF07C8F308950E947F0B08F46C
:1016800081E00895E89409C097FB3EF49095809519
:10169000709561957F4F8F4F9F4F9923A9F0F92F38
:1016A00096E9BB279395F695879577956795B795B6
:1016B000F111F8CFFAF4BB0F11F460FF1BC06F5F9C
:1016C0007F4F8F4F9F4F16C0882311F096E911C0AE
:1016D000772321F09EE8872F762F05C0662371F0CF
:1016E00096E8862F70E060E02AF09A95660F771FE3
:1016F000881FDAF7880F9695879597F90895990FBF
:101700000008550FAA0BE0E8FEEF16161706E807CB
:10171000F907C0F012161306E407F50798F0621BEC
:10172000730B840B950B39F40A2661F0232B242BC1
:10173000252B21F408950A2609F4A140A6958FEFE0
:10174000811D811D08950E94B60B0C94270C0E94E8
:10175000190C38F00E94200C20F0952311F00C9405
:10176000100C0C94160C11240C945B0C0E94380C79
:1017700070F3959FC1F3950F50E0551F629FF001E4
:10178000729FBB27F00DB11D639FAA27F00DB11DFD
:10179000AA1F649F6627B00DA11D661F829F222786
:1017A000B00DA11D621F739FB00DA11D621F839F0D
:1017B000A00D611D221F749F3327A00D611D231FE3
:1017C000849F600D211D822F762F6A2F11249F5731
:1017D00050409AF0F1F088234AF0EE0FFF1FBB1F34
:1017E000661F771F881F91505040A9F79E3F5105F3
:1017F00080F00C94100C0C945B0C5F3FE4F3983E6B
:10180000D4F3869577956795B795F795E7959F5F9C
:10181000C1F7FE2B880F911D9695879597F908952E
:1018200097F99F6780E870E060E008959FEF80EC93
:10183000089500240A941616170618060906089536
:1018400000240A9412161306140605060895092E9C
:101850000394000C11F4882352F0BB0F40F4BF2B0B
:1018600011F460FF04C06F5F7F4F8F4F9F4F08954B
:1018700057FD9058440F551F59F05F3F71F0479541
:10188000880F97FB991F61F09F3F79F08795089526
:10189000121613061406551FF2CF4695F1DF08C045
:1018A000161617061806991FF1CF86957105610562
:1018B00008940895E894BB2766277727CB0197F90A
:1018C00008952F923F924F925F926F927F928F92E4
:1018D0009F92AF92BF92CF92DF92EF92FF920F93BF
:1018E0001F93CF93DF93CDB7DEB7CA1BDB0B0FB6C9
:1018F000F894DEBF0FBECDBF09942A883988488886
:101900005F846E847D848C849B84AA84B984C8841B
:10191000DF80EE80FD800C811B81AA81B981CE0F12
:10192000D11D0FB6F894DEBF0FBECDBFED010895F7
:101930005058BB27AA270E94B00C0C94270C0E9479
:10194000190C38F00E94200C20F039F49F3F19F454
:1019500026F40C94160C0EF4E095E7FB0C94100C96
:10196000E92F0E94380C58F3BA17620773078407EF
:10197000950720F079F4A6F50C945A0C0EF4E09536
:101980000B2EBA2FA02D0B01B90190010C01CA0139
:10199000A0011124FF27591B99F0593F50F4503EE4
:1019A00068F11A16F040A22F232F342F4427585FD6
:1019B000F3CF469537952795A795F0405395C9F7EE
:1019C0007EF41F16BA0B620B730B840BBAF09150A6
:1019D000A1F0FF0FBB1F661F771F881FC2F70EC045
:1019E000BA0F621F731F841F48F487957795679518
:1019F000B795F7959E3F08F0B0CF9395880F08F004
:101A00009927EE0F9795879508950E94190D0C94CC
:101A1000270C0E94200C58F00E94190C40F029F469
:101A20005F3F29F00C94100C51110C945B0C0C943A
:101A3000160C0E94380C68F39923B1F3552391F3E7
:101A4000951B550BBB27AA2762177307840738F02D
:101A50009F5F5F4F220F331F441FAA1FA9F335D08A
:101A60000E2E3AF0E0E832D091505040E695001C3E
:101A7000CAF72BD0FE2F29D0660F771F881FBB1FF8
:101A8000261737074807AB07B0E809F0BB0B802DD6
:101A9000BF01FF2793585F4F3AF09E3F510578F002
:101AA0000C94100C0C945B0C5F3FE4F3983ED4F361
:101AB000869577956795B795F7959F5FC9F7880FD6
:101AC000911D9695879597F90895E1E0660F771F28
:101AD000881FBB1F621773078407BA0720F0621BB9
:101AE000730B840BBA0BEE1F88F7E09508950E94E4
:101AF0007E0D6894B1110C945B0C08950E94400C0B
:101B000088F09F5798F0B92F9927B751B0F0E1F0BE
:101B1000660F771F881F991F1AF0BA95C9F714C06E
:101B2000B13091F00E945A0CB1E008950C945A0C17
:101B3000672F782F8827B85F39F0B93FCCF38695A7
:101B400077956795B395D9F73EF490958095709504
:101B500061957F4F8F4F9F4F08950E947F0B08F430
:101B60008FEF0895EE0FFF1F0590F491E02D09947B
:101B7000CF93DF938230910510F482E090E0E09102
:101B80000202F091030220E030E0C0E0D0E03097A4
:101B900011F14081518148175907C0F04817590782
:101BA00061F482819381209719F09B838A832BC0F3
:101BB000909303028093020226C02115310519F08B
:101BC0004217530718F49A01BE01DF01EF010280AA
:101BD000F381E02DDCCF2115310509F1281B390BEC
:101BE0002430310590F412968D919C9113976115D4
:101BF000710521F0FB019383828304C0909303025B
:101C000080930202FD01329644C0FD01E20FF31FF2
:101C100081939193225031092D933C933AC02091A6
:101C2000000230910102232B41F4209102013091F6
:101C300003013093010220930002209100013091B2
:101C400001012115310541F42DB73EB74091040142
:101C500050910501241B350BE0910002F091010227
:101C6000E217F307A0F42E1B3F0B2817390778F073
:101C7000AC014E5F5F4F2417350748F04E0F5F1FD2
:101C800050930102409300028193919302C0E0E0DF
:101C9000F0E0CF01DF91CF9108950F931F93CF9381
:101CA000DF93009709F48CC0FC01329713821282F3
:101CB00000910202109103020115110581F42081A7
:101CC0003181820F931F2091000230910102281769
:101CD000390779F5F0930102E093000271C0D80151
:101CE00040E050E0AE17BF0750F412962D913C91A2
:101CF0001397AD012115310509F1D901F3CF9D01EC
:101D0000DA013383228360817181860F971F8217E6
:101D1000930769F4EC0128813981260F371F2E5F64
:101D20003F4F318320838A819B8193838283452B1C
:101D300029F4F0930302E093020242C01396FC934D
:101D4000EE931297ED01499159919E01240F351F91
:101D5000E217F30771F480819181840F951F029639
:101D600011969C938E938281938113969C938E936C
:101D70001297E0E0F0E0D80112968D919C911397B4
:101D8000009719F0F8018C01F6CF8D919C91980184
:101D90002E5F3F4F820F931F20910002309101026E
:101DA0002817390769F4309729F41092030210922A
:101DB000020202C0138212821093010200930002F9
:101DC000DF91CF911F910F910895A0E0B0E0EBEE6D
:101DD000FEE00C94650CEC01009721F4CB010E940D
:101DE000B80DB8C0FC01E60FF71F9C012250310965
:101DF000E217F30708F4ACC0D9010D911C911197BB
:101E000006171707B0F00530110508F49FC0C80188
:101E100004978617970708F499C002501109061B0A
:101E2000170B019311936D937C93CF010E944D0E7C
:101E30008DC05B01A01AB10A4C01800E911EA091C9
:101E40000202B091030240E050E0E12CF12C109727
:101E500009F44AC0A815B905D1F56D907C90119789
:101E6000630182E0C80ED11CCA14DB0480F1A30117
:101E70004A195B096A0182E0C80ED11C1296BC9017
:101E800012971396AC91B5E0CB16D10440F0B28214
:101E9000A38351834083D9016D937C930AC00E5F65
:101EA0001F4FC301800F911FF90191838083EB2D98
:101EB000FA2FE114F10431F0D7011396FC93EE935D
:101EC000129744C0F0930302E09302023FC08D9149
:101ED0009C9111974817590708F4AC017D0112969F
:101EE0000D90BC91A02DB3CF809100029091010282
:101EF00088159905E1F446175707C8F48091000149
:101F000090910101009741F48DB79EB74091040173
:101F100050910501841B950BE817F907C8F4F0935D
:101F20000102E0930002F901718360830FC0CB01CD
:101F30000E94B80D7C01009759F0A801BE010E94D3
:101F4000B40FCE010E944D0EC70104C0CE0102C0E5
:101F500080E090E0CDB7DEB7EEE00C94810C81E03C
:101F600090E0F8940C94C40FFB01DC0102C00190D6
:101F70000D9241505040D8F70895FB01DC010190CB
:0C1F80000D920020E1F70895F894FFCFC7
:101F8C00000004028000000000006602B601FE01A1
:101F9C00AD022F020D0221020D0A0053656E7A6FFD
:101FAC007220647265617074613A20007573203D13
:101FBC002000636D0053656E7A6F72207374616ECE
:101FCC0067613A20006F62737461636F6C206C619F
:021FDC002000E3
:00000001FF
