:100000000C9462000C948A000C948A000C948A0070
:100010000C948A000C948A000C948A000C948A0038
:100020000C948A000C948A000C948A000C948A0028
:100030000C948A000C948A000C948A000C948A0018
:100040000C94D5030C948A000C9445040C941F0462
:100050000C948A000C948A000C948A000C948A00F8
:100060000C948A000C948A000000000024002700F1
:100070002A0000000000250028002B0000000008D6
:10008000000201000003040700000000000000005F
:1000900000000000230026002900040404040404D6
:1000A0000404020202020202030303030303010227
:1000B00004081020408001020408102001020408F6
:1000C0001020640611241FBECFEFD8E0DEBFCDBFE5
:1000D00011E0A0E0B1E0ECEDFFE002C005900D9270
:1000E000A033B107D9F721E0A0E3B1E001C01D9230
:1000F000A43EB207E1F710E0C2E6D0E004C02197C9
:10010000FE010E94E107C136D107C9F70E94BC0475
:100110000C94EC070C940000833081F028F48130BB
:1001200099F08230A1F008958730A9F08830B9F0B5
:100130008430D1F4809180008F7D03C08091800055
:100140008F7780938000089584B58F7702C084B53F
:100150008F7D84BD08958091B0008F7703C080911A
:10016000B0008F7D8093B0000895CF93DF93282F48
:1001700030E0F901E458FF4F8491F901E255FF4F57
:10018000D491F901E656FF4FC491CC2391F081112F
:100190000E948C00EC2FF0E0EE0FFF1FE057FF4FA6
:1001A000A591B491EC91ED2381E090E021F480E001
:1001B00002C080E090E0DF91CF9108951F93CF932C
:1001C000DF93282F30E0F901E458FF4F8491F901C3
:1001D000E255FF4FD491F901E656FF4FC491CC236D
:1001E000C1F0162F81110E948C00EC2FF0E0EE0F71
:1001F000FF1FEE58FF4FA591B4919FB7F8941111CE
:1002000004C08C91D095D82302C0EC91DE2BDC93F6
:100210009FBFDF91CF911F91089561E086E00E941A
:10022000DE0060E087E00E94DE0061E085E00E9481
:10023000DE0060E084E00C94DE00CF93DF9390E07A
:10024000FC01E255FF4F2491FC01E656FF4F8491DB
:10025000882361F190E0880F991FFC01E859FF4F56
:10026000C591D491FC01EE58FF4FA591B491611155
:1002700009C09FB7F8948881209582238883EC91E8
:100280002E230BC0623061F49FB7F8948881322F1F
:10029000309583238883EC912E2B2C939FBF06C02F
:1002A0008FB7F894E8812E2B28838FBFDF91CF91F1
:1002B00008951F93CF93DF93182FEB0161E00E9405
:1002C0001D01209711F460E004C0CF3FD10539F43F
:1002D00061E0812FDF91CF911F910C94DE00E12F1F
:1002E000F0E0E458FF4FE491E330F9F048F4E130F6
:1002F000B9F0E230A1F584B5806284BDC8BD34C0D8
:10030000E730E9F0E83019F1E43049F580918000F8
:10031000806280938000D0938B00C0938A0024C0B9
:1003200084B5806884BDC7BD1FC08091800080688F
:1003300080938000D0938900C093880015C080917D
:10034000B00080688093B000C093B3000DC080916E
:10035000B00080628093B000C093B40005C0C03884
:10036000D1050CF0B5CFAFCFDF91CF911F9108959C
:100370003FB7F8948091430190914401A0914501C9
:10038000B091460126B5A89B05C02F3F19F00196F4
:10039000A11DB11D3FBFBA2FA92F982F8827820F0B
:1003A000911DA11DB11DBC01CD0142E0660F771F5B
:1003B000881F991F4A95D1F70895CF92DF92EF9247
:1003C000FF920F931F93CF93DF936C017A018B0100
:1003D000C0E0D0E0CE15DF0581F0D8016D918D0130
:1003E000D601ED91FC910190F081E02DC6010995B7
:1003F000892B11F02196EECF7E01C701DF91CF91BD
:100400001F910F91FF90EF90DF90CF900895089586
:1004100080E090E00895FC01538D448D252F30E05D
:10042000842F90E0821B930B541710F0CF96089501
:1004300001970895FC01918D828D981761F0828D4E
:10044000DF01A80FB11D5D968C91928D9F5F9F7308
:10045000928F90E008958FEF9FEF0895FC01918DAA
:10046000828D981731F0828DE80FF11D858D90E017
:1004700008958FEF9FEF0895FC01918D228D892FB4
:1004800090E0805C9F4F821B91098F73992708959C
:1004900087E491E00E943C0221E0892B09F420E0EE
:1004A000822F0895FC01848DDF01A80FB11DA35A8E
:1004B000BF4F2C91848D90E001968F739927848F84
:1004C000A689B7892C93A089B1898C9183708064A7
:1004D0008C93938D848D981306C00288F389E02D48
:1004E00080818F7D80830895EF92FF920F931F93F9
:1004F000CF93DF93EC0181E0888F9B8D8C8D9813D7
:1005000005C0E889F989808185FD26C0F62E0B8D0E
:1005100010E00F5F1F4F0F731127E02E8C8DE81234
:100520000CC00FB607FCFACFE889F989808185FFF6
:10053000F5CFCE010E945202F1CF8B8DFE01E80F64
:10054000F11DE35AFF4FF0829FB7F8940B8FEA89B1
:10055000FB89808180620AC09FB7F894EE89FF8989
:100560006083E889F98980818370806480839FBF7C
:1005700081E090E0DF91CF911F910F91FF90EF907C
:100580000895CF93DF93EC01888D8823C9F0EA8921
:10059000FB89808185FD05C0A889B9898C9186FD7C
:1005A0000FC00FB607FCF5CF808185FFF2CFA88979
:1005B000B9898C9185FFEDCFCE010E945202E7CF21
:1005C000DF91CF91089580E090E0892B29F00E947F
:1005D000480281110C94000008951F93CF93DF937C
:1005E000182F60E00E94DE00C3E0D0E0CE0101974A
:1005F000F1F761E0812F0E94DE0083E290E0019735
:10060000F1F760E0812F0E94DE002197F1F7DF9182
:10061000CF911F910895CF93DF93EB01BC018BE045
:100620000E945901BE0183E0DF91CF910C945901E2
:100630000F931F9390E0FC01E255FF4F6491FC0182
:10064000E656FF4FE491F0E0EE0FFF1FE057FF4F3B
:100650008591949100E412E42FE030E0462F0E944F
:100660007704611571058105910549F0DC01CB0125
:100670000196A11DB11DBC01CD019F7003C060E0BA
:1006800070E0CB011F910F910895009769F0FC0174
:1006900001900020E9F73197AF01481B590BBC01CD
:1006A00087E491E00C94DD0180E090E008958F9262
:1006B0009F92AF92BF92CF92DF92EF92FF920F93F1
:1006C0001F93CF93DF93CDB7DEB7A1970FB6F89402
:1006D000DEBF0FBECDBF6C01990FEE08FF08F7FE1D
:1006E0002BC06DE287E491E00E9474028C01222706
:1006F0003327A9012C193D094E095F0919A2CE0122
:1007000081967C019AE0892E912CA12CB12CCA01F2
:10071000B901A50194010E94BF07605DF7016293D2
:100720007F01211531054105510589F7CF010E944F
:100730004503080F191F1EC0A701960119A28E01BB
:100740000F5D1F4F8AE0C82ED12CE12CF12CCA017D
:10075000B901A70196010E94BF07605DF80162938D
:100760008F01211531054105510589F7CF010E94FF
:1007700045038C0182E191E00E944503800F911FA7
:10078000A1960FB6F894DEBF0FBECDBFDF91CF911B
:100790001F910F91FF90EF90DF90CF90BF90AF909F
:1007A0009F908F9008950E94E7071F920F920FB6B7
:1007B0000F9211242F933F938F939F93AF93BF93E7
:1007C00080913F0190914001A0914101B09142017F
:1007D00030913E0123E0230F2D3720F40196A11D17
:1007E000B11D05C026E8230F0296A11DB11D20935F
:1007F0003E0180933F0190934001A0934101B0934B
:1008000042018091430190914401A0914501B09132
:1008100046010196A11DB11D8093430190934401AF
:10082000A0934501B0934601BF91AF919F918F91E5
:100830003F912F910F900FBE0F901F9018951F9210
:100840000F920FB60F9211242F933F934F935F9304
:100850006F937F938F939F93AF93BF93EF93FF9388
:1008600087E491E00E945202FF91EF91BF91AF9116
:100870009F918F917F916F915F914F913F912F91B8
:100880000F900FBE0F901F9018951F920F920FB6EA
:100890000F9211242F938F939F93EF93FF93E091E7
:1008A0005701F09158018081E0915D01F0915E0166
:1008B00082FD12C09081809160018F5F8F732091C3
:1008C0006101821751F0E0916001F0E0E95BFE4FB9
:1008D000958F8093600101C08081FF91EF919F917E
:1008E0008F912F910F900FBE0F901F901895CF9260
:1008F000DF92EF92FF920F931F93E82FF92F05C01D
:10090000015011092109310961F190819623941751
:10091000B9F305C0015011092109310911F1908184
:1009200096239413F7CFC12CD12CE12CF12C0AC0C3
:100930008FEFC81AD80AE80AF80A0C151D052E050B
:100940003F0579F080818623841791F36C2D7D2DEE
:100950008E2D9F2D1F910F91FF90EF90DF90CF90E4
:10096000089560E070E080E090E01F910F91FF90AB
:10097000EF90DF90CF900895789484B5826084BD25
:1009800084B5816084BD85B5826085BD85B5816093
:1009900085BD80916E00816080936E001092810011
:1009A00080918100826080938100809181008160CC
:1009B000809381008091800081608093800080918D
:1009C000B10084608093B1008091B0008160809319
:1009D000B00080917A00846080937A0080917A00E0
:1009E000826080937A0080917A00816080937A009F
:1009F00080917A00806880937A001092C100E09123
:100A00005701F091580182E08083E0915301F09109
:100A100054011082E0915501F09156018FEC8083D2
:100A200010925F01E0915B01F0915C0186E08083B0
:100A3000E0915901F0915A01808180618083E091B9
:100A40005901F0915A01808188608083E0915901B9
:100A5000F0915A01808180688083E0915901F09182
:100A60005A0180818F7D808361E089E00E941D01B1
:100A700060E08AE00E941D0161E08DE00E941D019E
:100A800060E082E00E941D0161E08DE00E941D0196
:100A900061E08BE00E941D0161E086E00E941D0183
:100AA00061E087E00E941D0161E083E00E941D017A
:100AB00061E085E00E941D0161E084E00E941D016B
:100AC00060E08EE00E941D0160E08FE00E941D0149
:100AD00060E080E10E941D010E940D0160E070E075
:100AE00080E090E00E940B030E94B8014B015C0182
:100AF00028E8C22E23E1D22EE12CF12C0E94B8016D
:100B0000DC01CB0188199909AA09BB09883E9340E9
:100B1000A105B10598F321E0C21AD108E108F10856
:100B200088EE880E83E0981EA11CB11CC114D1046C
:100B3000E104F10419F789E090E00E94ED028AE0F7
:100B40000E9418030E940A0720E030E048E652E4C1
:100B50000E94960660933A0170933B0180933C019A
:100B600090933D018DE090E00E94ED0282E00E94B2
:100B700018030E940A0720E030E048E652E40E9491
:100B800096066093360170933701809338019093F5
:100B9000390180E10E94B500EC019093350180930A
:100BA00034018FE00E94B5009093330180933201AD
:100BB0008EE00E94B5009093310180933001CE0108
:100BC0000E94570380913201909133010E94570394
:100BD00080913001909131010E945703C0913401FE
:100BE000D0913501CC0FDD1F8091320190913301FE
:100BF000C80FD91FCC0FDD1F8091300190913101BA
:100C0000C80FD91F85E191E00E944503CE010E94E3
:100C10005703C0903A01D0903B01E0903C01F09026
:100C20003D0120E030E0A901C701B6010E94BA07EA
:100C3000181654F420E030E040EF51E4C701B6014B
:100C40000E94910687FD3DC0C0903601D0903701CB
:100C5000E0903801F090390120E030E0A901C701AF
:100C6000B6010E94BA07181654F420E030E040EFB5
:100C700051E4C701B6010E94910687FD22C060E0E1
:100C80008DE00E94DE00209719F460E070E00EC055
:100C9000CE010297039718F460E070E00EC0C130F7
:100CA000D10511F0269729F462E470E080E090E02D
:100CB00006C00E940D0162E470E08CE390E00E94A7
:100CC0000B030E94E30237CFE7E4F1E013821282C4
:100CD00088EE93E0A0E0B0E084839583A683B78399
:100CE00084E091E09183808385EC90E09587848710
:100CF00084EC90E09787868780EC90E0918B808BE6
:100D000081EC90E0938B828B82EC90E0958B848BCE
:100D100086EC90E0978B868B118E128E138E148E3C
:100D200008950E94450708F481E008950E94AA06EC
:100D30000C9480070E94790758F00E94720740F0D7
:100D400029F45F3F29F00C94690751110C94B40702
:100D50000C946F070E94910768F39923B1F3552310
:100D600091F3951B550BBB27AA27621773078407BE
:100D700038F09F5F5F4F220F331F441FAA1FA9F354
:100D800035D00E2E3AF0E0E832D091505040E69542
:100D9000001CCAF72BD0FE2F29D0660F771F881FA3
:100DA000BB1F261737074807AB07B0E809F0BB0B96
:100DB000802DBF01FF2793585F4F3AF09E3F5105AA
:100DC00078F00C9469070C94B4075F3FE4F3983E05
:100DD000D4F3869577956795B795F7959F5FC9F793
:100DE000880F911D9695879597F90895E1E0660F14
:100DF000771F881FBB1F621773078407BA0720F08D
:100E0000621B730B840BBA0BEE1F88F7E0950895F5
:100E1000E89409C097FB3EF4909580957095619594
:100E20007F4F8F4F9F4F9923A9F0F92F96E9BB274A
:100E30009395F695879577956795B795F111F8CFC6
:100E4000FAF4BB0F11F460FF1BC06F5F7F4F8F4F31
:100E50009F4F16C0882311F096E911C0772321F027
:100E60009EE8872F762F05C0662371F096E8862FBF
:100E700070E060E02AF09A95660F771F881FDAF716
:100E8000880F9695879597F90895990F0008550F43
:100E9000AA0BE0E8FEEF16161706E807F907C0F000
:100EA00012161306E407F50798F0621B730B840B08
:100EB000950B39F40A2661F0232B242B252B21F4E2
:100EC00008950A2609F4A140A6958FEF811D811D82
:100ED000089597F99F6780E870E060E008959FEFBC
:100EE00080EC089500240A941616170618060906C1
:100EF000089500240A941216130614060506089590
:100F0000092E0394000C11F4882352F0BB0F40F417
:100F1000BF2B11F460FF04C06F5F7F4F8F4F9F4F57
:100F2000089557FD9058440F551F59F05F3F71F0D9
:100F30004795880F97FB991F61F09F3F79F0879540
:100F40000895121613061406551FF2CF4695F1DFC9
:100F500008C0161617061806991FF1CF8695710559
:100F6000610508940895E894BB2766277727CB018D
:100F700097F908950E94450708F48FEF0895A1E2BC
:100F80001A2EAA1BBB1BFD010DC0AA1FBB1FEE1F03
:100F9000FF1FA217B307E407F50720F0A21BB30B4E
:100FA000E40BF50B661F771F881F991F1A9469F7CA
:100FB00060957095809590959B01AC01BD01CF0126
:100FC0000895EE0FFF1F0590F491E02D099481E044
:0C0FD00090E0F8940C94EC07F894FFCF2C
:100FDC00000000007402DD010B02C1023C021A0287
:100FEC002E020D0A003D3D3D3D3D206C696E652095
:100FFC0073656E736F72207374617465203D20008D
:00000001FF
