:100000000C9462000C948A000C948A000C948A0070
:100010000C948A000C948A000C948A000C94390584
:100020000C948A000C948A000C948A000C948A0028
:100030000C948A000C948A000C948A000C948A0018
:100040000C9497040C948A000C9407050C94E1041A
:100050000C948A000C948A000C948A000C948A00F8
:100060000C948A000C948A00000000080002010031
:100070000003040700000000000000000000000072
:10008000240027002A000000000023002600290089
:1000900000000000250028002B00040404040404D0
:1000A0000404020202020202030303030303010227
:1000B00004081020408001020408102001020408F6
:1000C00010205E0511241FBECFEFD8E0DEBFCDBFEC
:1000D00022E0A8E2B1E001C01D92A630B207E1F72C
:1000E00011E0A0E0B1E0E6E1F4E102C005900D927C
:1000F000A832B107D9F710E0C2E6D0E004C02197DA
:10010000FE010E94FE07C136D107C9F70E9496057D
:100110000C94090A0C940000DC0170E0FB01E2552C
:10012000FF4FE4911496EC93149750E0FA01E255D6
:10013000FF4FE4911596EC93159766567F4FFB01A0
:100140008491E82FF0E0EE0FFF1FE057FF4F8591FD
:10015000949117969C938E931697FA01E656FF4F4B
:10016000E491F0E0EE0FFF1FEA57FF4F8591949165
:1001700019969C938E931897FB016491E62FF0E0FB
:10018000EE0FFF1FE458FF4F859194911B969C93AF
:100190008E931A978DEA94E01D969C938E931C97EC
:1001A0000895833081F028F4813099F08230A1F0F5
:1001B00008958730A9F08830B9F08430D1F4809167
:1001C00080008F7D03C0809180008F7780938000B6
:1001D000089584B58F7702C084B58F7D84BD08955E
:1001E0008091B0008F7703C08091B0008F7D8093A5
:1001F000B0000895CF93DF93282F30E0F901E8593C
:10020000FF4F8491F901E255FF4FD491F901E65671
:10021000FF4FC491CC2391F081110E94D100EC2FAB
:10022000F0E0EE0FFF1FEA57FF4FA591B491EC915C
:10023000ED2381E090E021F480E002C080E090E0D6
:10024000DF91CF9108951F93CF93DF93282F30E054
:10025000F901E859FF4F8491F901E255FF4FD4911C
:10026000F901E656FF4FC491CC23C1F0162F81113E
:100270000E94D100EC2FF0E0EE0FFF1FE057FF4F80
:10028000A591B4919FB7F894111104C08C91D095A9
:10029000D82302C0EC91DE2BDC939FBFDF91CF917E
:1002A0001F910895CF93DF9390E0FC01E255FF4F3B
:1002B0002491FC01E656FF4F8491882361F190E080
:1002C000880F991FFC01E458FF4FC591D491FC01A0
:1002D000E057FF4FA591B491611109C09FB7F89401
:1002E0008881209582238883EC912E230BC0623075
:1002F00061F49FB7F8948881322F309583238883E7
:10030000EC912E2B2C939FBF06C08FB7F894E881F9
:100310002E2B28838FBFDF91CF9108951F93CF930A
:10032000DF93182FEB0161E00E945201209711F436
:1003300060E004C0CF3FD10539F461E0812FDF9147
:10034000CF911F910C942301E12FF0E0E859FF4F6A
:10035000E491E330F9F048F4E130B9F0E230A1F58E
:1003600084B5806284BDC8BD34C0E730E9F0E830B0
:1003700019F1E43049F5809180008062809380001B
:10038000D0938B00C0938A0024C084B5806884BD5C
:10039000C7BD1FC080918000806880938000D0938B
:1003A0008900C093880015C08091B0008068809358
:1003B000B000C093B3000DC08091B0008062809304
:1003C000B000C093B40005C0C038D1050CF0B5CF63
:1003D000AFCFDF91CF911F9108953FB7F8948091EF
:1003E0003D0190913E01A0913F01B091400126B5A1
:1003F000A89B05C02F3F19F00196A11DB11D3FBF5D
:10040000BA2FA92F982F8827820F911DA11DB11DEA
:10041000BC01CD0142E0660F771F881F991F4A95E6
:10042000D1F708958F929F92AF92BF92CF92DF92B1
:10043000EF92FF926B017C010E94ED014B015C0188
:10044000C114D104E104F104F1F00E94ED01DC01DA
:10045000CB0188199909AA09BB09883E9340A105D7
:10046000B10570F321E0C21AD108E108F10888EE65
:10047000880E83E0981EA11CB11CC114D104E104B4
:10048000F10419F7DDCFFF90EF90DF90CF90BF9090
:10049000AF909F908F900895CF92DF92EF92FF924E
:1004A0000F931F93CF93DF936C017A018B01C0E010
:1004B000D0E0CE15DF0581F0D8016D918D01D60118
:1004C000ED91FC910190F081E02DC6010995892BF9
:1004D00011F02196EECF7E01C701DF91CF911F91E0
:1004E0000F91FF90EF90DF90CF900895089580E0F6
:1004F00090E00895FC01538D448D252F30E0842F2A
:1005000090E0821B930B541710F0CF96089501973B
:100510000895FC01918D828D981761F0828DDF0125
:10052000A80FB11D5D968C91928D9F5F9F73928FE6
:1005300090E008958FEF9FEF0895FC01918D828DDB
:10054000981731F0828DE80FF11D858D90E00895A8
:100550008FEF9FEF0895FC01918D228D892F90E000
:10056000805C9F4F821B91098F739927089581E4C6
:1005700091E00E94AB0221E0892B09F420E0822F58
:100580000895FC01848DDF01A80FB11DA35ABF4F50
:100590002C91848D90E001968F739927848FA68982
:1005A000B7892C93A089B1898C91837080648C93D6
:1005B000938D848D981306C00288F389E02D808185
:1005C0008F7D80830895EF92FF920F931F93CF93B7
:1005D000DF93EC0181E0888F9B8D8C8D981305C093
:1005E000E889F989808185FD26C0F62E0B8D10E003
:1005F0000F5F1F4F0F731127E02E8C8DE8120CC078
:100600000FB607FCFACFE889F989808185FFF5CF1D
:10061000CE010E94C102F1CF8B8DFE01E80FF11DCA
:10062000E35AFF4FF0829FB7F8940B8FEA89FB895A
:10063000808180620AC09FB7F894EE89FF89608349
:10064000E889F98980818370806480839FBF81E01D
:1006500090E0DF91CF911F910F91FF90EF9008955F
:10066000CF93DF93EC01888D8823C9F0EA89FB8959
:10067000808185FD05C0A889B9898C9186FD0FC050
:100680000FB607FCF5CF808185FFF2CFA889B98925
:100690008C9185FFEDCFCE010E94C102E7CFDF91A3
:1006A000CF91089580E090E0892B29F00E94B70255
:1006B00081110C9400000895CF93DF93EB01BC01EE
:1006C0008BE00E948E01BE0183E0DF91CF910C94FC
:1006D0008E010F931F93CF93DF938C01EB01682F53
:1006E00086E00E94230161E0012B09F060E087E0D1
:1006F0000E9423016C2F85E00E94230161E0CD2B35
:1007000009F060E084E0DF91CF911F910F910C948C
:1007100023010F931F93CF93DF93EC018B0160E0D4
:1007200070E080E090E00E94690360E070E080E0AB
:1007300090E00E945C0368EE73E080E090E00E942D
:10074000120262E470E08CE390E00E945C0364EFCC
:1007500071E080E090E00E941202B801CE010E9498
:10076000690362E470E08CE390E00E945C036CE259
:1007700071E080E090E0DF91CF911F910F910C9498
:1007800012020F931F93CF93DF93FC01A285B385D1
:100790009C918481892B8C93A681B7819C918481C3
:1007A000809589238C938BE090E00197F1F7A681E7
:1007B000B7819C918481892B8C9383E290E001978F
:1007C000F1F7A681B7819C918481809589238C93D0
:1007D000A285B3859C918481809589238C93A08583
:1007E000B1859C918581892309F058C0EF010E9451
:1007F000ED012C853D85890120E030E00855194E3A
:100800002F4F3F4FDC01CB01800F911FA21FB31F61
:100810008E879F87A88BB98BE885F98590818D811C
:10082000892361F40E94ED010E851F85288939898D
:10083000061717072807390778F730C00E94ED011F
:100840002C853D85DC01CB01820F931FA11DB11DBD
:100850008E879F87A88BB98BE885F98590818D81DC
:10086000892361F00E94ED010E851F852889398951
:10087000061717072807390778F710C00E94ED01FF
:100880002C853D85A901455051092E853F85FA01EA
:10089000E21BF30BCF01860F971F02C080E090E0B0
:1008A000DF91CF911F910F9108950E94EB09EF9274
:1008B000FF920F931F93CF93DF93EC017B018A018B
:1008C00088819981009729F02A813B812417350777
:1008D000F8F4B8016F5F7F4F0E942509009759F027
:1008E000998388831B830A832C813D81232B81F488
:1008F000FC0110820DC088819981009711F00E943F
:100900009C08198218821D821C821B821A8207C0D1
:100910001D830C83B701888199810E94020ACE0150
:10092000DF91CF911F910F91FF90EF9008951F924B
:100930000F920FB60F9211242F933F938F939F9393
:10094000AF93BF938091390190913A01A0913B01FF
:10095000B0913C013091380123E0230F2D3720F472
:100960000196A11DB11D05C026E8230F0296A11D09
:10097000B11D209338018093390190933A01A093DF
:100980003B01B0933C0180913D0190913E01A091CB
:100990003F01B09140010196A11DB11D80933D0121
:1009A00090933E01A0933F01B0934001BF91AF915E
:1009B0009F918F913F912F910F900FBE0F901F909D
:1009C00018951F920F920FB60F9211242F933F93F9
:1009D0004F935F936F937F938F939F93AF93BF9347
:1009E000EF93FF9381E491E00E94C102FF91EF91A8
:1009F000BF91AF919F918F917F916F915F914F9137
:100A00003F912F910F900FBE0F901F9018951F923E
:100A10000F920FB60F9211242F938F939F93EF9302
:100A2000FF93E0915101F09152018081E0915701D3
:100A3000F091580182FD12C0908180915A018F5F20
:100A40008F7320915B01821751F0E0915A01F0E021
:100A5000EF5BFE4F958F80935A0101C08081FF911B
:100A6000EF919F918F912F910F900FBE0F901F903C
:100A700018951F920F920FB60F9211242F933F9348
:100A80004F935F936F937F938F939F93AF93BF9396
:100A9000EF93FF93E0E0F0E00995FF91EF91BF91B4
:100AA000AF919F918F917F916F915F914F913F9106
:100AB0002F910F900FBE0F901F901895E1E4F1E079
:100AC0001382128288EE93E0A0E0B0E084839583E5
:100AD000A683B7838AE091E09183808385EC90E0E0
:100AE0009587848784EC90E09787868780EC90E0F8
:100AF000918B808B81EC90E0938B828B82EC90E0E9
:100B0000958B848B86EC90E0978B868B118E128E62
:100B1000138E148E4AE069E080EF91E00E948C0011
:100B200042E06DE08EED91E00C948C00CF93DF936A
:100B3000CDB7DEB728970FB6F894DEBF0FBECDBF96
:100B4000789484B5826084BD84B5816084BD85B5A8
:100B5000826085BD85B5816085BD80916E008160B4
:100B600080936E001092810080918100826080935A
:100B7000810080918100816080938100809180005C
:100B80008160809380008091B10084608093B10087
:100B90008091B00081608093B00080917A00846081
:100BA00080937A0080917A00826080937A008091AD
:100BB0007A00816080937A0080917A0080688093C7
:100BC0007A001092C100E0915101F091520182E04F
:100BD0008083E0914D01F0914E011082E0914F0130
:100BE000F09150018FEC808310925901E0915501F2
:100BF000F091560186E08083E0915301F091540119
:100C0000808180618083E0915301F0915401808163
:100C100088608083E0915301F09154018081806865
:100C20008083E0915301F091540180818F7D808316
:100C300061E08DE00E94520161E08BE00E94520170
:100C400061E086E00E94520161E087E00E9452016B
:100C500061E083E00E94520161E085E00E94520160
:100C600061E084E00E94520160E08EE00E94520147
:100C700060E08FE00E94520160E080E10E9452013A
:100C800061E070E081E090E00E94690360E070E064
:100C900080E090E00E945C0368E873E180E090E00F
:100CA0000E94120229E3422E512C612C712C80EFFC
:100CB00091E00E94C103BC0180E090E0A301920199
:100CC0000E94DC07CA01B9010E943F076B017C0149
:100CD000609334017093350180933601909337010E
:100CE0008EED91E00E94C103BC0180E090E0A30181
:100CF00092010E94DC07CA01B9010E943F074B0123
:100D00005C016093300170933101809332019093C4
:100D1000330180E10E94FA008C0190932F018093AF
:100D20002E018FE00E94FA001C0190932D01809308
:100D30002C018EE00E94FA0098878F8320E030E03B
:100D4000A901C701B6010E94D707181654F420E084
:100D500030E040EA51E4C701B6010E943A0787FD3E
:100D600014C020E030E0A901C501B4010E94D707FA
:100D700018160CF048C020E030E040EA51E4C5010C
:100D8000B4010E943A0787FF3EC01A8219821C8272
:100D90001B821E821D8247E050E068E171E0CE01B7
:100DA00001960E945704A5019401C701B6010E9453
:100DB000D707181644F446E050E060E271E0CE0137
:100DC00001960E94570461E08DE00E9423018D810D
:100DD0009E81892B69F068E171E089819A810E9486
:100DE000F909892B29F460E070E081E090E004C00B
:100DF00061E070E080E090E00E94890389819A813F
:100E00000E949C0834C0000F111F200E311E220CBE
:100E1000331C8F819885280E391E60E08DE00E947A
:100E200023012114310419F460E070E011C0C10104
:100E30000297039718F460E070E015C091E029165E
:100E4000310421F086E02816310429F462E470E0D0
:100E500080E090E00AC061E070E081E090E00E94F4
:100E6000690362E470E08CE390E00E945C030E94FE
:100E700052031DCF0E947C0708F481E00895E89496
:100E800009C097FB3EF490958095709561957F4FD2
:100E90008F4F9F4F9923A9F0F92F96E9BB27939580
:100EA000F695879577956795B795F111F8CFFAF490
:100EB000BB0F11F460FF1BC06F5F7F4F8F4F9F4FC1
:100EC00016C0882311F096E911C0772321F09EE81F
:100ED000872F762F05C0662371F096E8862F70E085
:100EE00060E02AF09A95660F771F881FDAF7880F5F
:100EF0009695879597F90895990F0008550FAA0BB5
:100F0000E0E8FEEF16161706E807F907C0F012161C
:100F10001306E407F50798F0621B730B840B950B1F
:100F200039F40A2661F0232B242B252B21F4089574
:100F30000A2609F4A140A6958FEF811D811D089511
:100F40002F923F924F925F926F927F928F929F92D9
:100F5000AF92BF92CF92DF92EF92FF920F931F93C7
:100F6000CF93DF93CDB7DEB7CA1BDB0B0FB6F89478
:100F7000DEBF0FBECDBF09942A88398848885F84B8
:100F80006E847D848C849B84AA84B984C884DF8029
:100F9000EE80FD800C811B81AA81B981CE0FD11D0D
:100FA0000FB6F894DEBF0FBECDBFED0108950E94CD
:100FB0007C0708F48FEF0895A1E21A2EAA1BBB1B31
:100FC000FD010DC0AA1FBB1FEE1FFF1FA217B30715
:100FD000E407F50720F0A21BB30BE40BF50B661F2B
:100FE000771F881F991F1A9469F7609570958095EF
:100FF00090959B01AC01BD01CF010895EE0FFF1F3D
:101000000590F491E02D09940F931F93CF93DF93F4
:101010008230910510F482E090E0E0910402F091BA
:10102000050220E030E0A0E0B0E0309719F1408107
:1010300051810281138148175907C8F08417950719
:1010400069F4109731F012960C93129713961C9333
:1010500027C0009304021093050222C02115310518
:1010600019F04217530718F49A01BD01EF01DF018F
:10107000F801DBCF21153105F9F0281B390B24309D
:10108000310580F48A819B816115710521F0FB0196
:101090009383828304C09093050280930402FE012F
:1010A000329644C0FE01E20FF31F819391932250C8
:1010B0003109398328833AC020910202309103021A
:1010C000232B41F42091020130910301309303025C
:1010D0002093020220910001309101012115310578
:1010E00041F42DB73EB74091040150910501241BF6
:1010F000350BE0910202F0910302E217F307A0F42E
:101100002E1B3F0B2817390778F0AC014E5F5F4F5D
:101110002417350748F04E0F5F1F5093030240938A
:1011200002028193919302C0E0E0F0E0CF01DF91F1
:10113000CF911F910F910895CF93DF93009709F4FA
:1011400081C0FC01329713821282A0910402B091F7
:101150000502109781F420813181820F931F209125
:101160000202309103022817390751F5F093030268
:10117000E093020267C0ED0120E030E0CE17DF0708
:1011800040F44A815B819E0141155105F1F0EA016D
:10119000F5CFD383C28340815181840F951FC81737
:1011A000D90759F488819981840F951F02969183FC
:1011B00080838A819B81938382832115310529F461
:1011C000F0930502E09304023DC0E901FB83EA834A
:1011D00049915991C40FD51FEC17FD0761F4808127
:1011E0009181840F951F0296E901998388838281FA
:1011F00093819B838A83E0E0F0E012968D919C912D
:101200001397009719F0FD01DC01F7CF8D919C91A8
:1012100011979D012E5F3F4F820F931F2091020275
:10122000309103022817390769F4309729F4109296
:1012300005021092040202C013821282B0930302CC
:10124000A0930202DF91CF910895A0E0B0E0EBE21D
:10125000F9E00C94A407EC01009721F4CB010E9463
:101260000408B4C0FC01E60FF71F9C0122503109AD
:10127000E217F30708F4A8C0D9010D911C9111974A
:1012800006171707B0F00530110508F49BC0C80118
:1012900004978617970708F495C002501109061B9A
:1012A000170B019311936D937C93CF010E949C08BF
:1012B00089C05B01A01AB10A4C01800E911EA09159
:1012C0000402B0910502612C712CE12CF12C1097D5
:1012D00009F446C08D919C911197A815B905B1F5F7
:1012E0006C0142E0C40ED11CCA14DB0478F14C013D
:1012F0008A189B08640142E0C40ED11C1296BC906F
:1013000012971396AC91B5E0CB16D10440F0B2829F
:10131000A38391828082D9016D937C9309C00E5F73
:101320001F4F800F911FF90191838083EB2DFA2FBE
:10133000E114F10431F0D7011396FC93EE93129768
:1013400041C0F0930502E09304023CC068167906A0
:1013500008F43C017D0112960D90BC91A02DB7CFF1
:10136000809102029091030288169906E1F46616B4
:101370007706C8F48091000190910101009741F433
:101380008DB79EB74091040150910501841B950BC8
:10139000E817F907C8F4F0930302E0930202F90199
:1013A000718360830FC0CB010E9404087C01009709
:1013B00059F0A801BE010E94F009CE010E949C08CC
:1013C000C70104C0CE0102C080E090E0CDB7DEB717
:1013D000EEE00C94C00781E090E0F8940C94090AC8
:1013E000FB01DC0102C001900D9241505040D8F742
:1013F0000895FB01DC018D91019080190110D9F352
:10140000990B0895FB01DC0101900D920020E1F79A
:061410000895F894FFCFDF
:1014160000000602800000000000E3024C027A028F
:101426003003AB0289029D026472656170746100CB
:081436007374616E6761000030
:00000001FF
