:100000000C94DF000C9407010C9407010C94070179
:100010000C9407010C9407010C9407010C94070140
:100020000C9407010C9407010C9407010C94070130
:100030000C9407010C9407010C9407010C94070120
:100040000C9404060C9407010C9474060C944E0650
:100050000C9407010C9407010C9407010C94070100
:100060000C9407010C94070100407A10F35A00A089
:10007000724E18090010A5D4E80000E87648170071
:1000800000E40B54020000CA9A3B000000E1F505B1
:10009000000080969800000040420F000000A086FB
:1000A00001000000102700000000E803000000002D
:1000B0006400000000000A000000000001000000D1
:1000C00000002C76D888DC674F0823DFC1DFAE59EB
:1000D000E1B1B796E5E3E453C63AE651997696E87E
:1000E000E6C28426EB898C9B62ED407C6FFCEFBC02
:1000F0009C9F40F2BAA56FA5F490055A2AF75C932D
:100100006B6CF9676DC11BFCE0E40D47FEF520E662
:10011000B500D0ED902E0300943577050080841E45
:10012000080000204E0A000000C80C333333330FA0
:10013000986E12831141EF8D2114893BE65516CF3D
:10014000FEE6DB18D1844B381BF77C1D901DA4BB49
:10015000E424203284725E228100C9F124ECA1E5FE
:100160003D2700000000240027002A0000000000B6
:10017000250028002B000000000023002600290095
:10018000040404040404040402020202020203033D
:100190000303030301020408102040800102040845
:1001A00010200102040810200000000800020100D5
:1001B00000030407000000000000000013091124E0
:1001C0001FBECFEFD8E0DEBFCDBF22E0A2E7B1E097
:1001D00001C01D92AA32B207E1F711E0A0E0B1E040
:1001E000ECE4FEE102C005900D92A237B107D9F709
:1001F00010E0CFEDD0E004C02197FE010E94190D60
:10020000CE3DD107C9F70E94EB060C94240F0C9445
:100210000000833081F028F4813099F08230A1F021
:1002200008958730A9F08830B9F08430D1F48091F6
:1002300080008F7D03C0809180008F778093800045
:10024000089584B58F7702C084B58F7D84BD0895ED
:100250008091B0008F7703C08091B0008F7D809334
:10026000B0000895CF93DF93282F30E0F901E855CF
:10027000FE4F8491F901EC56FE4FD491F901E058FC
:10028000FE4FC491CC2391F081110E940901EC2F03
:10029000F0E0EE0FFF1FEA58FE4FA591B491EC91EC
:1002A000ED2381E090E021F480E002C080E090E066
:1002B000DF91CF9108951F93CF93DF93282F30E0E4
:1002C000F901E855FE4F8491F901EC56FE4FD491A7
:1002D000F901E058FE4FC491CC23C1F0162F8111D3
:1002E0000E940901EC2FF0E0EE0FFF1FE459FE4FD2
:1002F000A591B4919FB7F894111104C08C91D09539
:10030000D82302C0EC91DE2BDC939FBFDF91CF910D
:100310001F910895CF93DF9390E0FC01EC56FE4FC0
:100320002491FC01E058FE4F8491882361F190E014
:10033000880F991FFC01EE59FE4FC591D491FC0125
:10034000E459FE4FA591B491611109C09FB7F8948B
:100350008881209582238883EC912E230BC0623004
:1003600061F49FB7F8948881322F30958323888376
:10037000EC912E2B2C939FBF06C08FB7F894E88189
:100380002E2B28838FBFDF91CF9108951F93CF939A
:10039000DF93182FEB0161E00E948A01209711F48E
:1003A00060E004C0CF3FD10539F461E0812FDF91D7
:1003B000CF911F910C945B01E12FF0E0E855FE4FC7
:1003C000E491E330F9F048F4E130B9F0E230A1F51E
:1003D00084B5806284BDC8BD34C0E730E9F0E83040
:1003E00019F1E43049F580918000806280938000AB
:1003F000D0938B00C0938A0024C084B5806884BDEC
:10040000C7BD1FC080918000806880938000D0931A
:100410008900C093880015C08091B00080688093E7
:10042000B000C093B3000DC08091B0008062809393
:10043000B000C093B40005C0C038D1050CF0B5CFF2
:10044000AFCFDF91CF911F9108953FB7F89480917E
:10045000850190918601A0918701B091880126B510
:10046000A89B05C02F3F19F00196A11DB11D3FBFEC
:10047000BA2FA92F982F8827820F911DA11DB11D7A
:10048000BC01CD0142E0660F771F881F991F4A9576
:10049000D1F708958F929F92AF92BF92CF92DF9241
:1004A000EF92FF926B017C010E9425024B015C01DF
:1004B000C114D104E104F104F1F00E942502DC0131
:1004C000CB0188199909AA09BB09883E9340A10567
:1004D000B10570F321E0C21AD108E108F10888EEF5
:1004E000880E83E0981EA11CB11CC114D104E10444
:1004F000F10419F7DDCFFF90EF90DF90CF90BF9020
:10050000AF909F908F900895CF92DF92EF92FF92DD
:100510000F931F93CF93DF936C017A018B01C0E09F
:10052000D0E0CE15DF0581F0D8016D918D01D601A7
:10053000ED91FC910190F081E02DC6010995892B88
:1005400011F02196EECF7E01C701DF91CF911F916F
:100550000F91FF90EF90DF90CF900895089580E085
:1005600090E00895FC01538D448D252F30E0842FB9
:1005700090E0821B930B541710F0CF9608950197CB
:100580000895FC01918D828D981761F0828DDF01B5
:10059000A80FB11D5D968C91928D9F5F9F73928F76
:1005A00090E008958FEF9FEF0895FC01918D828D6B
:1005B000981731F0828DE80FF11D858D90E0089538
:1005C0008FEF9FEF0895FC01918D228D892F90E090
:1005D000805C9F4F821B91098F739927089589E84A
:1005E00091E00E94E30221E0892B09F420E0822FB0
:1005F0000895FC01848DDF01A80FB11DA35ABF4FE0
:100600002C91848D90E001968F739927848FA68911
:10061000B7892C93A089B1898C91837080648C9365
:10062000938D848D981306C00288F389E02D808114
:100630008F7D80830895EF92FF920F931F93CF9346
:10064000DF93EC0181E0888F9B8D8C8D981305C022
:10065000E889F989808185FD26C0F62E0B8D10E092
:100660000F5F1F4F0F731127E02E8C8DE8120CC007
:100670000FB607FCFACFE889F989808185FFF5CFAD
:10068000CE010E94F902F1CF8B8DFE01E80FF11D22
:10069000E35AFF4FF0829FB7F8940B8FEA89FB89EA
:1006A000808180620AC09FB7F894EE89FF896083D9
:1006B000E889F98980818370806480839FBF81E0AD
:1006C00090E0DF91CF911F910F91FF90EF900895EF
:1006D000CF93DF93EC01888D8823C9F0EA89FB89E9
:1006E000808185FD05C0A889B9898C9186FD0FC0E0
:1006F0000FB607FCF5CF808185FFF2CFA889B989B5
:100700008C9185FFEDCFCE010E94F902E7CFDF91FA
:10071000CF91089580E090E0892B29F00E94EF02AC
:1007200081110C9400000895CF93DF93EB01BC017D
:100730008BE00E94C601BE0183E0DF91CF910C9453
:10074000C6010F931F93CF93DF938C01EB01682FAA
:1007500086E00E945B0161E0012B09F060E087E028
:100760000E945B016C2F85E00E945B0161E0CD2B54
:1007700009F060E084E0DF91CF911F910F910C941C
:100780005B010F931F93CF93DF93EC018B0160E02C
:1007900070E080E090E00E94A10360E070E080E003
:1007A00090E00E94940368EE73E080E090E00E9485
:1007B0004A0260E670E08FE693E00E94940364EFE3
:1007C00071E080E090E00E944A02B801CE010E94F0
:1007D000A10360E670E08FE693E00E9494036CE270
:1007E00071E080E090E0DF91CF911F910F910C9428
:1007F0004A02009769F0FC0101900020E9F7319767
:10080000AF01481B590BBC0189E891E00C948402AC
:1008100080E090E00895CF93DF93FC0144815581FF
:100820006081718189E891E00E948402EC0188E195
:1008300091E00E94F9038C0F9D1FDF91CF910895E5
:10084000CF93DF93EC010E940B048C819D81892B57
:10085000C9F00990D881C02D6BE171E0CE010E94F2
:10086000140F892B19F460E070E00EC060E271E0B3
:10087000CE010E94140F892B29F460E070E08FE60E
:1008800093E004C060E670E080E090E0DF91CF91FB
:100890000C9494038F929F92AF92BF92CF92DF926B
:1008A000EF92FF920F931F93CF93DF93CDB7DEB7F5
:1008B000A1970FB6F894DEBF0FBECDBF6C01990FA4
:1008C000EE08FF08F7FE2BC06DE289E891E00E9478
:1008D0001B038C0122273327A9012C193D094E093E
:1008E0005F0919A2CE0181967C019AE0892E912C94
:1008F000A12CB12CCA01B901A50194010E94F70CE9
:10090000605DF70162937F012115310541055105B5
:1009100089F7CF010E94F903080F191F1EC0A70114
:10092000960119A28E010F5D1F4F8AE0C82ED12CAF
:10093000E12CF12CCA01B901A70196010E94F70C24
:10094000605DF80162938F01211531054105510564
:1009500089F7CF010E94F9038C0188E191E00E94A0
:10096000F903800F911FA1960FB6F894DEBF0FBE5A
:10097000CDBFDF91CF911F910F91FF90EF90DF904E
:10098000CF90BF90AF909F908F900895CF93DF93BB
:10099000EC0188819981009711F00E94B70D1982AE
:1009A00018821D821C821B821A82DF91CF910895CA
:1009B0000E94060F0F931F93CF93DF93EC01888162
:1009C0009981009729F02A813B812617370788F4FF
:1009D0008B016F5F7F4F0E94400E009761F09983FB
:1009E00088831B830A832C813D81232B11F4FC0116
:1009F000108281E001C080E0DF91CF911F910F91C3
:100A00000895EF92FF920F931F93CF93DF93611599
:100A1000710511F480E01CC041155105C1F07B0146
:100A2000EC018C819D818A01080F191FB801CE014C
:100A30000E94DA04882371F3288139818C819D8199
:100A4000B701820F931F0E941D0F1D830C8381E04D
:100A5000DF91CF911F910F91FF90EF900895CF9369
:100A6000DF93EC016115710561F0FB01019000203D
:100A7000E9F73197AF01461B570B0E940105811121
:100A800003C0CE010E94C604CE01DF91CF9108952C
:100A9000EF92FF920F931F93CF93DF93EC01198294
:100AA00018821B821A821D821C826115710521F138
:100AB0008B01FB0101900020E9F731977F01E61AD5
:100AC000F70AB7010E94DA04811109C0CE01DF9153
:100AD000CF911F910F91FF90EF900C94C604FD826F
:100AE000EC82B80188819981DF91CF911F910F919C
:100AF000FF90EF900C941D0FDF91CF911F910F91FC
:100B0000FF90EF900895EF92FF920F931F93CF9372
:100B1000DF938C017B016115710569F0FB01019088
:100B20000020E9F73197EF01C61BD70BBE010E94E9
:100B3000DA04811104C0C8010E94C60408C0F8018B
:100B4000D583C483B701808191810E941D0FC801A4
:100B5000DF91CF911F910F91FF90EF900895FF9239
:100B60000F931F93CF93DF93F82EEB0160E00E9469
:100B70005B0103E010E0C8010197F1F761E08F2D00
:100B80000E945B0183E290E00197F1F760E08F2D16
:100B90000E945B01C8010197F1F7CE019927FC0182
:100BA000EC56FE4F6491FC01E058FE4FE491F0E0FA
:100BB000EE0FFF1FEA58FE4F8591949100E412E476
:100BC0002FE030E0462F0E94A606611571058105D1
:100BD000910549F0DC01CB010196A11DB11DBC01BD
:100BE000CD019F7003C060E070E0CB010E94990BC3
:100BF00020E030E048E652E40E94800CDF91CF9183
:100C00001F910F91FF9008951F920F920FB60F92B0
:100C100011242F933F938F939F93AF93BF93809112
:100C2000810190918201A0918301B0918401309162
:100C3000800123E0230F2D3720F40196A11DB11D63
:100C400005C026E8230F0296A11DB11D2093800147
:100C50008093810190938201A0938301B0938401DA
:100C60008091850190918601A0918701B0918801C2
:100C70000196A11DB11D8093850190938601A093DB
:100C80008701B0938801BF91AF919F918F913F9160
:100C90002F910F900FBE0F901F9018951F920F92DB
:100CA0000FB60F9211242F933F934F935F936F933F
:100CB0007F938F939F93AF93BF93EF93FF9389E8B5
:100CC00091E00E94F902FF91EF91BF91AF919F9146
:100CD0008F917F916F915F914F913F912F910F90E5
:100CE0000FBE0F901F9018951F920F920FB60F9284
:100CF00011242F938F939F93EF93FF93E09199018A
:100D0000F0919A018081E0919F01F091A00182FD14
:100D100012C090818091A2018F5F8F732091A301F7
:100D2000821751F0E091A201F0E0E757FE4F958F56
:100D30008093A20101C08081FF91EF919F918F91DB
:100D40002F910F900FBE0F901F901895CF92DF92AA
:100D5000EF92FF920F931F93E82FF92F05C00150D8
:100D600011092109310961F1908196239417B9F392
:100D700005C0015011092109310911F19081962313
:100D80009413F7CFC12CD12CE12CF12C0AC08FEF9A
:100D9000C81AD80AE80AF80A0C151D052E053F05E1
:100DA00079F080818623841791F36C2D7D2D8E2D13
:100DB0009F2D1F910F91FF90EF90DF90CF9008959E
:100DC00060E070E080E090E01F910F91FF90EF9065
:100DD000DF90CF900895CF93DF93CDB7DEB7AD9777
:100DE0000FB6F894DEBF0FBECDBF789484B5826095
:100DF00084BD84B5816084BD85B5826085BD85B5BF
:100E0000816085BD80916E00816080936E0010923C
:100E100081008091810082608093810080918100B7
:100E20008160809381008091800081608093800048
:100E30008091B10084608093B1008091B0008160A6
:100E40008093B00080917A00846080937A008091D2
:100E50007A00826080937A0080917A00816080932A
:100E60007A0080917A00806880937A001092C100A5
:100E7000E0919901F0919A0182E08083E0919501DF
:100E8000F09196011082E0919701F09198018FEC1A
:100E900080831092A101E0919D01F0919E0186E076
:100EA0008083E0919B01F0919C018081806180832F
:100EB000E0919B01F0919C01808188608083E091AA
:100EC0009B01F0919C01808180688083E0919B016F
:100ED000F0919C0180818F7D808361E089E00E9498
:100EE0008A0160E08AE00E948A0161E08DE00E9450
:100EF0008A0160E082E00E948A0161E08DE00E9448
:100F00008A0161E08BE00E948A0161E086E00E9434
:100F10008A0161E087E00E948A0161E083E00E942B
:100F20008A0161E085E00E948A0161E084E00E941C
:100F30008A0160E08EE00E948A0160E08FE00E94FA
:100F40008A0160E080E10E948A0161E070E081E056
:100F500090E00E94A10360E070E080E090E00E94D9
:100F6000940368E873E180E090E00E944A0261E047
:100F700070E081E090E00E94A10360E670E08FE6FF
:100F800093E00E9494036AE070E089E090E00E94A0
:100F9000AF0560937C0170937D0180937E019093F7
:100FA0007F0162E070E08DE090E00E94AF05609309
:100FB00078017093790180937A0190937B0180E1AD
:100FC0000E9432018C0190937701809376018FE02B
:100FD0000E94320190937501809374018EE00E940B
:100FE00032019093730180937201C8010E944A04F8
:100FF00080917401909175010E944A048091720160
:10100000909173010E944A0400917601109177013A
:10101000000F111F8091740190917501080F191F25
:10102000000F111F8091720190917301080F191F19
:1010300087E291E00E94F903C8010E944A04C0902F
:101040007C01D0907D01E0907E01F0907F0120E056
:1010500030E0A901C701B6010E94F20C181654F441
:1010600020E030E040EF51E4C701B6010E94920B4E
:1010700087FD1CC0C0907801D0907901E0907A0182
:10108000F0907B0120E030E0A901C701B6010E9489
:10109000F20C18160CF09CC020E030E040EF51E458
:1010A000C701B6010E94920B87FF92C062E471E013
:1010B000CE0188960E944805A0907801B0907901F1
:1010C00000917A0110917B01C0907C01D0907D014C
:1010D000E0907E01F0907F019601A701B501C80163
:1010E0000E94920B87FF06C060E271E0CE018896F5
:1010F0000E9483059601A701B501C8010E94F20C68
:10110000181614F0650178011BA21AA21DA21CA2D8
:101110001FA21EA28E010F5F1F4F22E044E0B60106
:10112000C7010E944009BC01CE0182960E9483053E
:101130006AE471E0C8010E9448054CA55DA568A558
:1011400079A5C8010E940105811103C0C8010E9450
:10115000C60469E671E0CE0101960E942F058C015C
:101160004EA15FA16AA17BA10E940105811103C06C
:10117000C8010E94C6046EE671E0C8010E942F05F6
:101180000E940B0489819A810E94B70D8AA19BA1BC
:101190000E94B70D61E08DE00E945B018CA59DA5CA
:1011A000892B69F062E471E088A599A50E94140F6B
:1011B000892B29F460E070E081E090E004C061E0F8
:1011C00070E080E090E00E94C10388A599A520C04E
:1011D00060E08DE00E945B010115110519F46BE1DF
:1011E00071E00CC0C8010297029718F460E271E048
:1011F00005C00630110571F462E471E0CE0101967C
:101200000E944805CE0101960E94200489819A819E
:101210000E94B70D64E670E080E090E00E944A0210
:101220000E948A03A4CEE9E8F1E01382128288EEDC
:1012300093E0A0E0B0E084839583A683B7838AE03F
:1012400091E09183808385EC90E09587848784EC9E
:1012500090E09787868780EC90E0918B808B81EC83
:1012600090E0938B828B82EC90E0958B848B86EC64
:1012700090E0978B868B118E128E138E148E0895AC
:10128000EF920F931F93CF93DF93E80147FD02C0C6
:1012900034E001C034E1042E000C550B57FF03C0AD
:1012A000519541955109E32E022F242FAE010E9442
:1012B0006009CE01DF91CF911F910F91EF900895BA
:1012C000A9E0B0E0E6E6F9E00C944F0C6A01122FB9
:1012D000B02E2BE3201720F0FF24F394F00E02C071
:1012E0002CE3F22E0F2D27E0AE014F5F5F4F0E94DF
:1012F000BA0ABC014981842F8970813031F0E1FC48
:1013000006C0E0FE06C090E205C09DE203C09BE27D
:1013100001C090E05E2D507143FF3CC0911102C0AE
:1013200083E001C084E0811718F4212F281B01C03D
:1013300020E051110BC0F601822F30E2882319F012
:1013400031938150FBCFC20ED11C20E0992329F0AC
:10135000D6019C93F60131966F01C6010396E2FE19
:101360000AC03EE4D6013C9341E411964C93119798
:1013700012963C9306C03EE6F601308341E6418377
:101380003283FC01322F40E2332309F442C04193FF
:101390003150FACF42FF44C0911102C083E001C036
:1013A00084E0811718F4212F281B01C020E051117F
:1013B0000BC0F601822F30E2882319F0319381505F
:1013C000FBCFC20ED11C20E0992329F0D6019C93BB
:1013D000F60131966F01C6010396E2FE0BC039E4B7
:1013E000D6013C933EE411963C93119736E4129655
:1013F0003C9307C039E6F60130833EE6318336E69A
:101400003283FC01322F40E2332319F041933150F3
:10141000FBCFFC01E20FF11D10828EEF9FEFA6C003
:1014200021E030E0911102C020E030E016161706EE
:101430001CF4FB01319602C0E1E0F0E02E0F3F1FEB
:10144000BB2021F0EB2DF0E0319602C0E0E0F0E0AF
:101450002E0F3F1FE12FF0E02E173F071CF4121B49
:10146000212F01C020E08E2D887159F4F601822FC2
:1014700030E2882319F031938150FBCFC20ED11C8A
:1014800020E0992329F0D6019C93F60131966F0153
:1014900051110BC0F601822F90E3882319F091932C
:1014A0008150FBCFC20ED11C20E00F2D060F9A8178
:1014B000342F307144FF03C0913309F401501016EA
:1014C00024F4093018F008E001C001E0AB0177FF17
:1014D00002C040E050E0FB01E41BF50BA1E0B0E0EE
:1014E000AC0FBD1FEA0FFB1F8EE2A82E4B01801A26
:1014F00091080B2D10E01195019511094F3FBFEF99
:101500005B0721F4D601AC9211966D016417750743
:101510002CF08416950614F4818101C080E34150BB
:1015200051093196D60111967D014017510724F0DB
:10153000D6018C936701E2CF6417750739F49633AF
:1015400020F4953319F4311101C081E3F601808351
:10155000F701822F90E2882319F091938150FBCFFD
:10156000F701E20FF11D108280E090E02996ECE097
:101570000C946B0C283008F027E03327DA01990F20
:10158000311D87FD916000966105710539F4326067
:101590002E5F3D9330E32A95E1F708959F3F30F0A9
:1015A00080387105610509F03C5F3C5F3D939130E7
:1015B00008F08068911DDF93CF931F930F93FF92E4
:1015C000EF92192F987F9695E92F96959695E90FAA
:1015D000FF27EE53FF4F99273327EE24FF24A7015F
:1015E000E70105900894079428F4360FE71EF81ECB
:1015F000491F511D660F771F881F991F0694A1F779
:101600000590079428F4E70EF81E491F561FC11DC8
:10161000770F881F991F661F0694A1F705900794FE
:1016200028F4F80E491F561FC71FD11D880F991F98
:10163000661F771F0694A1F70590079420F4490FC1
:10164000561FC71FD81F990F661F771F881F069444
:10165000A9F784911095177041F0D695C7955795C5
:101660004795F794E7941A95C1F7E8E6F0E0689497
:101670001590159135916591959105907FE273953F
:10168000E118F10A430B560BC90BD009C0F7E10C66
:10169000F11E431F561FC91FD01D7EF4703311F475
:1016A0008A95E6CFE894015030F0080F0AF400273D
:1016B000021708F4202F2395022F7A3328F079E3BC
:1016C0007D932A95E9F710C07D932A9589F60694B3
:1016D00097956795379517951794E118F10A430B7D
:1016E000560BC90BD00998F023957E9173957A33E8
:1016F00008F070E37C932013B8F77E9170617D93BE
:1017000030F0839571E37D9370E32A95E1F711241E
:10171000EF90FF900F911F91CF91DF91992787FD57
:10172000909508950E94D40B08F481E00895E89400
:1017300009C097FB3EF490958095709561957F4F19
:101740008F4F9F4F9923A9F0F92F96E9BB279395C7
:10175000F695879577956795B795F111F8CFFAF4D7
:10176000BB0F11F460FF1BC06F5F7F4F8F4F9F4F08
:1017700016C0882311F096E911C0772321F09EE866
:10178000872F762F05C0662371F096E8862F70E0CC
:1017900060E02AF09A95660F771F881FDAF7880FA6
:1017A0009695879597F90895990F0008550FAA0BFC
:1017B000E0E8FEEF16161706E807F907C0F0121664
:1017C0001306E407F50798F0621B730B840B950B67
:1017D00039F40A2661F0232B242B252B21F40895BC
:1017E0000A2609F4A140A6958FEF811D811D089559
:1017F00097F99F6780E870E060E008959FEF80ECC4
:10180000089500240A941616170618060906089566
:1018100000240A9412161306140605060895092ECC
:101820000394000C11F4882352F0BB0F40F4BF2B3B
:1018300011F460FF04C06F5F7F4F8F4F9F4F08957B
:1018400057FD9058440F551F59F05F3F71F0479571
:10185000880F97FB991F61F09F3F79F08795089556
:10186000121613061406551FF2CF4695F1DF08C075
:10187000161617061806991FF1CF86957105610592
:1018800008940895E894BB2766277727CB0197F93A
:1018900008952F923F924F925F926F927F928F9214
:1018A0009F92AF92BF92CF92DF92EF92FF920F93EF
:1018B0001F93CF93DF93CDB7DEB7CA1BDB0B0FB6F9
:1018C000F894DEBF0FBECDBF09942A8839884888B6
:1018D0005F846E847D848C849B84AA84B984C8844C
:1018E000DF80EE80FD800C811B81AA81B981CE0F43
:1018F000D11D0FB6F894DEBF0FBECDBFED01089528
:101900000E94940C0C940F0C0E94080C58F00E943A
:10191000010C40F029F45F3F29F00C94F80B5111B1
:101920000C94430C0C94FE0B0E94200C68F399233A
:10193000B1F3552391F3951B550BBB27AA276217CB
:101940007307840738F09F5F5F4F220F331F441FD8
:10195000AA1FA9F335D00E2E3AF0E0E832D091500C
:101960005040E695001CCAF72BD0FE2F29D0660FF9
:10197000771F881FBB1F261737074807AB07B0E83C
:1019800009F0BB0B802DBF01FF2793585F4F3AF042
:101990009E3F510578F00C94F80B0C94430C5F3F7C
:1019A000E4F3983ED4F3869577956795B795F795C8
:1019B0009F5FC9F7880F911D9695879597F90895B0
:1019C000E1E0660F771F881FBB1F6217730784074C
:1019D000BA0720F0621B730B840BBA0BEE1F88F75B
:1019E000E09508950E94D40B08F48FEF0895A1E2CA
:1019F0001A2EAA1BBB1BFD010DC0AA1FBB1FEE1F89
:101A0000FF1FA217B307E407F50720F0A21BB30BD3
:101A1000E40BF50B661F771F881F991F1A9469F74F
:101A200060957095809590959B01AC01BD01CF01AB
:101A30000895EE0FFF1F0590F491E02D09940F9388
:101A40001F93CF93DF938230910510F482E090E0F2
:101A5000E0912802F091290220E030E0A0E0B0E01F
:101A6000309719F14081518102811381481759073C
:101A7000C8F08417950769F4109731F012960C930B
:101A8000129713961C9327C00093280210932902E3
:101A900022C02115310519F04217530718F49A0195
:101AA000BD01EF01DF01F801DBCF21153105F9F0B0
:101AB000281B390B2430310580F48A819B81611504
:101AC000710521F0FB019383828304C09093290266
:101AD00080932802FE01329644C0FE01E20FF31FFC
:101AE0008193919322503109398328833AC0209100
:101AF000260230912702232B41F4209102013091DC
:101B00000301309327022093260220910001309197
:101B100001012115310541F42DB73EB74091040173
:101B200050910501241B350BE0912602F09127020C
:101B3000E217F307A0F42E1B3F0B2817390778F0A4
:101B4000AC014E5F5F4F2417350748F04E0F5F1F03
:101B500050932702409326028193919302C0E0E0C4
:101B6000F0E0CF01DF91CF911F910F910895CF93B6
:101B7000DF93009709F481C0FC013297138212822F
:101B8000A0912802B0912902109781F4208131811F
:101B9000820F931F209126023091270228173907C0
:101BA00051F5F0932702E093260267C0ED0120E093
:101BB00030E0CE17DF0740F44A815B819E0141157A
:101BC0005105F1F0EA01F5CFD383C2834081518101
:101BD000840F951FC817D90759F488819981840FFC
:101BE000951F0296918380838A819B819383828350
:101BF0002115310529F4F0932902E09328023DC014
:101C0000E901FB83EA8349915991C40FD51FEC1771
:101C1000FD0761F480819181840F951F0296E9018F
:101C200099838883828193819B838A83E0E0F0E0BB
:101C300012968D919C911397009719F0FD01DC018C
:101C4000F7CF8D919C9111979D012E5F3F4F820F91
:101C5000931F20912602309127022817390769F433
:101C6000309729F4109229021092280202C01382A0
:101C70001282B0932702A0932602DF91CF9108959C
:101C8000A0E0B0E0E6E4FEE00C944D0CEC0100971F
:101C900021F4CB010E941F0DB4C0FC01E60FF71F19
:101CA0009C0122503109E217F30708F4A8C0D901BA
:101CB0000D911C91119706171707B0F0053011050B
:101CC00008F49BC0C80104978617970708F495C0CD
:101CD00002501109061B170B019311936D937C930E
:101CE000CF010E94B70D89C05B01A01AB10A4C0157
:101CF000800E911EA0912802B0912902612C712CB6
:101D0000E12CF12C109709F446C08D919C9111970C
:101D1000A815B905B1F56C0142E0C40ED11CCA1476
:101D2000DB0478F14C018A189B08640142E0C40E80
:101D3000D11C1296BC9012971396AC91B5E0CB16BD
:101D4000D10440F0B282A38391828082D9016D9345
:101D50007C9309C00E5F1F4F800F911FF901918383
:101D60008083EB2DFA2FE114F10431F0D7011396A3
:101D7000FC93EE93129741C0F0932902E09328025E
:101D80003CC06816790608F43C017D0112960D905E
:101D9000BC91A02DB7CF8091260290912702881682
:101DA0009906E1F466167706C8F4809100019091D7
:101DB0000101009741F48DB79EB740910401509105
:101DC0000501841B950BE817F907C8F4F093270267
:101DD000E0932602F901718360830FC0CB010E945A
:101DE0001F0D7C01009759F0A801BE010E940B0F46
:101DF000CE010E94B70DC70104C0CE0102C080E031
:101E000090E0CDB7DEB7EEE00C94690C81E090E095
:101E1000F8940C94240FFB01DC0102C001900D9298
:101E200041505040D8F70895FB01DC018D9101909D
:101E300080190110D9F3990B0895FB01DC01019081
:0C1E40000D920020E1F70895F894FFCF08
:101E4C0000002A028000000000001B038402B20282
:101E5C006803E302C102D5020D0A0073746F7000AF
:101E6C007374616E6761003D3D3D3D3D206C696E54
:101E7C00652073656E736F72207374617465203D99
:101E8C0020006472656170746100446574656374EC
:101E9C006174206F62737461636F6C206C6120736A
:101EAC00656E7A6F72756C2000206C612000636D1A
:021EBC00000024
:00000001FF
