:100000000C94DF000C9407010C9407010C94070179
:100010000C9407010C9407010C9407010C94FD0645
:100020000C9407010C9407010C9407010C94070130
:100030000C9407010C9407010C9407010C94070120
:100040000C945B060C9407010C94CB060C94A5064B
:100050000C9407010C9407010C9407010C94070100
:100060000C9407010C94070100407A10F35A00A089
:10007000724E18090010A5D4E80000E87648170071
:1000800000E40B54020000CA9A3B000000E1F505B1
:10009000000080969800000040420F000000A086FB
:1000A00001000000102700000000E803000000002D
:1000B0006400000000000A000000000001000000D1
:1000C00000002C76D888DC674F0823DFC1DFAE59EB
:1000D000E1B1B796E5E3E453C63AE651997696E87E
:1000E000E6C28426EB898C9B62ED407C6FFCEFBC02
:1000F0009C9F40F2BAA56FA5F490055A2AF75C932D
:100100006B6CF9676DC11BFCE0E40D47FEF520E662
:10011000B500D0ED902E0300943577050080841E45
:10012000080000204E0A000000C80C333333330FA0
:10013000986E12831141EF8D2114893BE65516CF3D
:10014000FEE6DB18D1844B381BF77C1D901DA4BB49
:10015000E424203284725E228100C9F124ECA1E5FE
:100160003D27000000080002010000030407000012
:1001700000000000000000000000240027002A000A
:1001800000000000230026002900000000002500D8
:1001900028002B00040404040404040402020202E4
:1001A000020203030303030301020408102040803A
:1001B0000102040810200102040810202207112463
:1001C0001FBECFEFD8E0DEBFCDBF22E0A0E5B1E09B
:1001D00001C01D92A033B207E1F711E0A0E0B1E049
:1001E000E0E2FDE102C005900D92A035B107D9F71C
:1001F00010E0CFEDD0E004C02197FE010E94830CF7
:10020000CE3DD107C9F70E945A070C948E0E0C946C
:100210000000DC0170E0FB01E855FE4FE49114960C
:10022000EC93149750E0FA01E855FE4FE4911596CF
:10023000EC9315976C567E4FFB018491E82FF0E00C
:10024000EE0FFF1FE657FE4F8591949117969C93F2
:100250008E931697FA01EC56FE4FE491F0E0EE0F04
:10026000FF1FE058FE4F8591949119969C938E93B1
:100270001897FB016491E62FF0E0EE0FFF1FEA589C
:10028000FE4F859194911B969C938E931A9783E7CA
:1002900092E01D969C938E931C970895833081F075
:1002A00028F4813099F08230A1F008958730A9F0C8
:1002B0008830B9F08430D1F4809180008F7D03C004
:1002C000809180008F7780938000089584B58F7728
:1002D00002C084B58F7D84BD08958091B0008F7772
:1002E00003C08091B0008F7D8093B0000895CF93BC
:1002F000DF93282F30E0F901EE59FE4F8491F90188
:10030000E855FE4FD491F901EC56FE4FC491CC2331
:1003100091F081110E944E01EC2FF0E0EE0FFF1FD3
:10032000E058FE4FA591B491EC91ED2381E090E06F
:1003300021F480E002C080E090E0DF91CF91089549
:100340001F93CF93DF93282F30E0F901EE59FE4F32
:100350008491F901E855FE4FD491F901EC56FE4F16
:10036000C491CC23C1F0162F81110E944E01EC2FB5
:10037000F0E0EE0FFF1FE657FE4FA591B4919FB737
:10038000F894111104C08C91D095D82302C0EC913F
:10039000DE2BDC939FBFDF91CF911F910895CF9308
:1003A000DF9390E0FC01E855FE4F2491FC01EC56F0
:1003B000FE4F8491882361F190E0880F991FFC0122
:1003C000EA58FE4FC591D491FC01E657FE4FA59126
:1003D000B491611109C09FB7F89488812095822358
:1003E0008883EC912E230BC0623061F49FB7F894A0
:1003F0008881322F309583238883EC912E2B2C9388
:100400009FBF06C08FB7F894E8812E2B28838FBF3B
:10041000DF91CF9108951F93CF93DF93182FEB01B6
:1004200061E00E94CF01209711F460E004C0CF3F4B
:10043000D10539F461E0812FDF91CF911F910C94A8
:10044000A001E12FF0E0EE59FE4FE491E330F9F026
:1004500048F4E130B9F0E230A1F584B5806284BDA2
:10046000C8BD34C0E730E9F0E83019F1E43049F5AF
:1004700080918000806280938000D0938B00C09335
:100480008A0024C084B5806884BDC7BD1FC0809128
:100490008000806880938000D0938900C09388009A
:1004A00015C08091B00080688093B000C093B30005
:1004B0000DC08091B00080628093B000C093B40002
:1004C00005C0C038D1050CF0B5CFAFCFDF91CF91CB
:1004D0001F9108953FB7F89480916701909168014A
:1004E000A0916901B0916A0126B5A89B05C02F3F74
:1004F00019F00196A11DB11D3FBFBA2FA92F982F4A
:100500008827820F911DA11DB11DBC01CD0142E0C4
:10051000660F771F881F991F4A95D1F708958F920C
:100520009F92AF92BF92CF92DF92EF92FF926B01B8
:100530007C010E946A024B015C01C114D104E104F8
:10054000F104F1F00E946A02DC01CB0188199909DB
:10055000AA09BB09883E9340A105B10570F321E0CB
:10056000C21AD108E108F10888EE880E83E0981ECF
:10057000A11CB11CC114D104E104F10419F7DDCFB1
:10058000FF90EF90DF90CF90BF90AF909F908F90B3
:100590000895CF92DF92EF92FF920F931F93CF9324
:1005A000DF936C017A018B01C0E0D0E0CE15DF054E
:1005B00081F0D8016D918D01D601ED91FC910190F2
:1005C000F081E02DC6010995892B11F02196EECF1F
:1005D0007E01C701DF91CF911F910F91FF90EF90A6
:1005E000DF90CF900895089580E090E00895FC0199
:1005F000538D448D252F30E0842F90E0821B930B88
:10060000541710F0CF96089501970895FC01918D2D
:10061000828D981761F0828DDF01A80FB11D5D9664
:100620008C91928D9F5F9F73928F90E008958FEFD2
:100630009FEF0895FC01918D828D981731F0828D86
:10064000E80FF11D858D90E008958FEF9FEF0895DD
:10065000FC01918D228D892F90E0805C9F4F821B41
:1006600091098F73992708958BE691E00E942803E2
:1006700021E0892B09F420E0822F0895FC01848D6C
:10068000DF01A80FB11DA35ABF4F2C91848D90E0BC
:1006900001968F739927848FA689B7892C93A08997
:1006A000B1898C91837080648C93938D848D981321
:1006B00006C00288F389E02D80818F7D80830895B4
:1006C000EF92FF920F931F93CF93DF93EC0181E0A2
:1006D000888F9B8D8C8D981305C0E889F98980815E
:1006E00085FD26C0F62E0B8D10E00F5F1F4F0F7398
:1006F0001127E02E8C8DE8120CC00FB607FCFACF44
:10070000E889F989808185FFF5CFCE010E943E03FB
:10071000F1CF8B8DFE01E80FF11DE35AFF4FF08200
:100720009FB7F8940B8FEA89FB89808180620AC0A9
:100730009FB7F894EE89FF896083E889F989808101
:100740008370806480839FBF81E090E0DF91CF91D0
:100750001F910F91FF90EF900895CF93DF93EC01DD
:10076000888D8823C9F0EA89FB89808185FD05C0D1
:10077000A889B9898C9186FD0FC00FB607FCF5CF0B
:10078000808185FFF2CFA889B9898C9185FFEDCF53
:10079000CE010E943E03E7CFDF91CF91089580E024
:1007A00090E0892B29F00E94340381110C94000001
:1007B0000895CF93DF93EB01BC018BE00E940B0205
:1007C000BE0183E0DF91CF910C940B020F931F9336
:1007D000CF93DF938C01EB01682F86E00E94A0018C
:1007E00061E0012B09F060E087E00E94A0016C2F1E
:1007F00085E00E94A00161E0CD2B09F060E084E07B
:10080000DF91CF911F910F910C94A0010F931F9333
:10081000CF93DF93EC018B0160E070E080E090E02B
:100820000E94E60360E070E080E090E00E94D9035F
:1008300068EE73E080E090E00E948F0268E370E071
:1008400088E390E00E94D90364EF71E080E090E0DB
:100850000E948F02B801CE010E94E60368E370E0B7
:1008600088E390E00E94D9036CE271E080E090E0C0
:100870000E948F0260E08DE0DF91CF911F910F9178
:100880000C94A0018F929F92AF92BF920F931F93EF
:10089000CF93DF93CDB7DEB7A1970FB6F894DEBF45
:1008A0000FBECDBF19A2423008F44AE08E010F5DA1
:1008B0001F4F842E912CA12CB12CA50194010E94D4
:1008C000610CE62FB901CA0101501109EA3014F494
:1008D000E05D01C0E95CD801EC93232B242B252B90
:1008E00061F70115110571F0F80101900020E9F799
:1008F0003197AF01401B510BB8018BE691E00E948C
:10090000C90202C080E090E0A1960FB6F894DEBF65
:100910000FBECDBFDF91CF911F910F91BF90AF90D0
:100920009F908F90089542E050E068E171E08BE67F
:1009300091E00C94C902CF92DF92EF92FF92CF9395
:10094000DF936C01990FEE08FF08F7FE13C06DE20C
:100950008BE691E00E946003EC0166277727CB01CC
:100960006C197D098E099F094AE00E944204C80F54
:10097000D91F06C04AE0C701B6010E944204EC013B
:100980000E9493048C0F9D1FDF91CF91FF90EF90F9
:10099000DF90CF9008950F931F93CF93DF93FC01C7
:1009A000A285B3859C918481892B8C93A681B78184
:1009B0009C918481809589238C938BE090E00197B2
:1009C000F1F7A681B7819C918481892B8C9383E276
:1009D00090E00197F1F7A681B7819C918481809581
:1009E00089238C93A285B3859C91848180958923EA
:1009F0008C93A085B1859C918581892309F058C08D
:100A0000EF010E946A022C853D85890120E030E0DB
:100A10000855194E2F4F3F4FDC01CB01800F911F1E
:100A2000A21FB31F8E879F87A88BB98BE885F98596
:100A300090818D81892361F40E946A020E851F8551
:100A400028893989061717072807390778F730C02A
:100A50000E946A022C853D85DC01CB01820F931F29
:100A6000A11DB11D8E879F87A88BB98BE885F9855D
:100A700090818D81892361F00E946A020E851F8515
:100A800028893989061717072807390778F710C00A
:100A90000E946A022C853D85A901455051092E8589
:100AA0003F85FA01E21BF30BCF01860F971F02C0AF
:100AB00080E090E0DF91CF911F910F910895CF9347
:100AC000DF93EC0188819981009711F00E94210D3C
:100AD000198218821D821C821B821A82DF91CF919B
:100AE00008950E94700E0F931F93CF93DF93EC0134
:100AF00088819981009729F02A813B812617370741
:100B000088F48B016F5F7F4F0E94AA0D009761F000
:100B1000998388831B830A832C813D81232B11F4C5
:100B2000FC01108281E001C080E0DF91CF911F9134
:100B30000F910895EF92FF920F931F93CF93DF933E
:100B40006115710511F480E01CC041155105C1F01B
:100B50007B01EC018C819D818A01080F191FB8016E
:100B6000CE010E947305882371F3288139818C811D
:100B70009D81B701820F931F0E94870E1D830C83F6
:100B800081E0DF91CF911F910F91FF90EF90089539
:100B9000CF93DF93EC01FB0144815581608171812A
:100BA0000E949A05811103C0CE010E945F05CE010B
:100BB000DF91CF910895CF93DF93EC01611571051B
:100BC00061F0FB0101900020E9F73197AF01461B6E
:100BD000570B0E949A05811103C0CE010E945F0548
:100BE000CE01DF91CF910895EF92FF920F931F9363
:100BF000CF93DF93EC01198218821B821A821D8227
:100C00001C826115710521F18B01FB01019000200F
:100C1000E9F731977F01E61AF70AB7010E947305D9
:100C2000811109C0CE01DF91CF911F910F91FF90EB
:100C3000EF900C945F05FD82EC82B8018881998168
:100C4000DF91CF911F910F91FF90EF900C94870E41
:100C5000DF91CF911F910F91FF90EF900895EF9248
:100C6000FF920F931F93CF93DF938C017B0161154C
:100C7000710569F0FB0101900020E9F73197EF0160
:100C8000C61BD70BBE010E947305811104C0C801A9
:100C90000E945F0508C0F801D583C483B701808135
:100CA00091810E94870EC801DF91CF911F910F9112
:100CB000FF90EF9008951F920F920FB60F9211249C
:100CC0002F933F938F939F93AF93BF938091630133
:100CD00090916401A0916501B0916601309162012B
:100CE00023E0230F2D3720F40196A11DB11D05C06F
:100CF00026E8230F0296A11DB11D20936201809367
:100D0000630190936401A0936501B09366018091A3
:100D1000670190916801A0916901B0916A01019603
:100D2000A11DB11D8093670190936801A093690193
:100D3000B0936A01BF91AF919F918F913F912F9195
:100D40000F900FBE0F901F9018951F920F920FB625
:100D50000F9211242F933F934F935F936F937F9341
:100D60008F939F93AF93BF93EF93FF938BE691E0A5
:100D70000E943E03FF91EF91BF91AF919F918F91A0
:100D80007F916F915F914F913F912F910F900FBE87
:100D90000F901F9018951F920F920FB60F9211246B
:100DA0002F938F939F93EF93FF93E0917B01F091AB
:100DB0007C018081E0918101F091820182FD12C06D
:100DC0009081809184018F5F8F73209185018217BC
:100DD00051F0E0918401F0E0E559FE4F958F80934A
:100DE000840101C08081FF91EF919F918F912F919C
:100DF0000F900FBE0F901F9018951F920F920FB675
:100E00000F9211242F933F934F935F936F937F9390
:100E10008F939F93AF93BF93EF93FF93E0E0F0E046
:100E20000995FF91EF91BF91AF919F918F917F9124
:100E30006F915F914F913F912F910F900FBE0F9047
:100E40001F901895EBE6F1E01382128288EE93E092
:100E5000A0E0B0E084839583A683B7838AE091E025
:100E60009183808385EC90E09587848784EC90E083
:100E70009787868780EC90E0918B808B81EC90E067
:100E8000938B828B82EC90E0958B848B86EC90E048
:100E9000978B868B118E128E138E148E4AE069E02A
:100EA0008AE192E00E94090142E06DE088E092E070
:100EB0000C940901CF93DF93CDB7DEB7E3970FB65C
:100EC000F894DEBF0FBECDBF789484B5826084BD38
:100ED00084B5816084BD85B5826085BD85B581603E
:100EE00085BD80916E00816080936E0010928100BC
:100EF0008091810082608093810080918100816077
:100F00008093810080918000816080938000809137
:100F1000B10084608093B1008091B00081608093C3
:100F2000B00080917A00846080937A0080917A008A
:100F3000826080937A0080917A00816080937A0049
:100F400080917A00806880937A001092C100E091CD
:100F50007B01F0917C0182E08083E0917701F09148
:100F600078011082E0917901F0917A018FEC808311
:100F700010928301E0917F01F091800186E08083EF
:100F8000E0917D01F0917E01808180618083E0911C
:100F90007D01F0917E01808188608083E0917D01F8
:100FA000F0917E01808180688083E0917D01F091E5
:100FB0007E0180818F7D808361E08DE00E94CF0182
:100FC00061E08BE00E94CF0161E086E00E94CF01EA
:100FD00061E087E00E94CF0161E083E00E94CF01E1
:100FE00061E085E00E94CF0161E084E00E94CF01D2
:100FF00060E08EE00E94CF0160E08FE00E94CF01B0
:1010000060E080E10E94CF0161E070E081E090E06B
:101010000E94E60360E070E080E090E00E94D90367
:1010200068EE73E080E090E00E948F0281E090E043
:101030000E949B0468EE73E080E090E00E948F02C3
:1010400082E090E00E949B0468EE73E080E090E014
:101050000E948F0283E090E00E949B0468EE73E0A0
:1010600080E090E00E948F0284E090E00E949B0468
:1010700068EE73E080E090E00E948F0285E090E0EF
:101080000E949B0480E10E9477018C01909359019A
:10109000809358018FE00E9477016C019093570173
:1010A000809356018EE00E9477017C0180905A0166
:1010B00090905B01A0905C01B0905D0120E030E079
:1010C000A901C501B4010E945C0C181654F420E07B
:1010D00030E040E251E4C501B4010E94FC0B87FD01
:1010E0001CC080905E0190905F01A0906001B09064
:1010F000610120E030E0A901C501B4010E945C0C4F
:1011000018160CF0C7C020E030E040E251E4C50101
:10111000B4010E94FC0B87FFBDC06BE171E0CE0102
:101120008E960E94F405C0905A01D0905B01E09029
:101130005C01F0905D0120E030E0A901C701B6013B
:101140000E94FC0B8823C9F080905E0190905F01A3
:10115000A0906001B090610120E030E0A901C501DC
:10116000B4010E945C0C181674F4A5019401C70127
:10117000B6010E945C0C181634F463E271E0CE01F3
:101180008E960E942F061BA21AA21DA21CA21FA2AD
:101190001EA28E010F5F1F4F22E044E0C701B6017F
:1011A0000E94AA09BC01CE0182960E942F0660917E
:1011B0005E0170915F01809160019091610119A6BB
:1011C00018A61BA61AA61DA61CA622E044E00E9493
:1011D000AA09BC01CE0188960E942F066AE271E03E
:1011E000C8010E94F405BE01625D7F4FC8010E94E4
:1011F000C80569E471E00E94DB05BE01685D7F4FB0
:101200000E94C8056BE471E00E94DB05BE016E5DC3
:101210007F4F0E94C8056EE471E00E94DB05FC016F
:1012200044815581608171818BE691E00E94C90201
:101230000E94930489819A810E94210D88A599A515
:101240000E94210D8AA19BA10E94210D61E08DE0E9
:101250000E94A0018AA99BA9892B69F06BE171E02A
:101260008EA59FA50E947E0E892B29F460E070E078
:1012700081E090E004C061E070E080E090E00E94D6
:10128000060410925501109254018EA59FA50E944C
:10129000210D5DC0000F111F0C0D1D1D000F111F32
:1012A0000E0D1F1D0115110539F460E070E080E09E
:1012B00090E00E94D90347C0C8010297039738F411
:1012C00060E070E086E590E00E94D90334C0013010
:1012D000110519F00630110529F466E570E080E08B
:1012E00090E024C007301105B9F480915401909129
:1012F0005501009789F08630910529F46CE470E07F
:101300008EE290E006C0039711F56EE270E08CE487
:1013100090E00E94D9031BC061E070E081E090E0A2
:101320000E94E60368E370E088E390E00E94D9033E
:101330000730110561F00530110529F410925501AF
:101340001092540104C010935501009354010E945F
:10135000CF0398CEEF920F931F93CF93DF93E801C3
:1013600047FD02C034E001C034E1042E000C550BEF
:1013700057FF03C0519541955109E32E022F242FA9
:10138000AE010E94CA09CE01DF91CF911F910F914A
:10139000EF900895A9E0B0E0E0EDF9E00C942B0C9B
:1013A0006A01122FB02E2BE3201720F0FF24F394B4
:1013B000F00E02C02CE3F22E0F2D27E0AE014F5F9E
:1013C0005F4F0E94240BBC014981842F89708130BA
:1013D00031F0E1FC06C0E0FE06C090E205C09DE2EF
:1013E00003C09BE201C090E05E2D507143FF3CC002
:1013F000911102C083E001C084E0811718F4212F0D
:10140000281B01C020E051110BC0F601822F30E2F1
:10141000882319F031938150FBCFC20ED11C20E0FC
:10142000992329F0D6019C93F60131966F01C601EC
:101430000396E2FE0AC03EE4D6013C9341E41196D5
:101440004C93119712963C9306C03EE6F60130830A
:1014500041E641833283FC01322F40E2332309F419
:1014600042C041933150FACF42FF44C0911102C0B3
:1014700083E001C084E0811718F4212F281B01C0EC
:1014800020E051110BC0F601822F30E2882319F0C1
:1014900031938150FBCFC20ED11C20E0992329F05B
:1014A000D6019C93F60131966F01C6010396E2FEC8
:1014B0000BC039E4D6013C933EE411963C9311975E
:1014C00036E412963C9307C039E6F60130833EE6D7
:1014D000318336E63283FC01322F40E2332319F0A8
:1014E00041933150FBCFFC01E20FF11D10828EEFD2
:1014F0009FEFA6C021E030E0911102C020E030E073
:10150000161617061CF4FB01319602C0E1E0F0E06C
:101510002E0F3F1FBB2021F0EB2DF0E0319602C0D3
:10152000E0E0F0E02E0F3F1FE12FF0E02E173F0725
:101530001CF4121B212F01C020E08E2D887159F45C
:10154000F601822F30E2882319F031938150FBCFCE
:10155000C20ED11C20E0992329F0D6019C93F601FC
:1015600031966F0151110BC0F601822F90E3882351
:1015700019F091938150FBCFC20ED11C20E00F2DAA
:10158000060F9A81342F307144FF03C0913309F460
:101590000150101624F4093018F008E001C001E0F1
:1015A000AB0177FF02C040E050E0FB01E41BF50B0C
:1015B000A1E0B0E0AC0FBD1FEA0FFB1F8EE2A82E2A
:1015C0004B01801A91080B2D10E01195019511091E
:1015D0004F3FBFEF5B0721F4D601AC9211966D012E
:1015E000641775072CF08416950614F4818101C0E8
:1015F00080E3415051093196D60111967D01401783
:10160000510724F0D6018C936701E2CF6417750768
:1016100039F4963320F4953319F4311101C081E384
:10162000F6018083F701822F90E2882319F09193CD
:101630008150FBCFF701E20FF11D108280E090E0B6
:101640002996ECE00C94470C283008F027E033276B
:10165000DA01990F311D87FD9160009661057105D2
:1016600039F432602E5F3D9330E32A95E1F7089517
:101670009F3F30F080387105610509F03C5F3C5FA9
:101680003D93913008F08068911DDF93CF931F93B5
:101690000F93FF92EF92192F987F9695E92F9695C9
:1016A0009695E90FFF27EE53FF4F99273327EE2436
:1016B000FF24A701E70105900894079428F4360F4A
:1016C000E71EF81E491F511D660F771F881F991FBF
:1016D0000694A1F70590079428F4E70EF81E491F19
:1016E000561FC11D770F881F991F661F0694A1F70B
:1016F0000590079428F4F80E491F561FC71FD11DE7
:10170000880F991F661F771F0694A1F7059007940D
:1017100020F4490F561FC71FD81F990F661F771F48
:10172000881F0694A9F784911095177041F0D695FB
:10173000C79557954795F794E7941A95C1F7E8E64A
:10174000F0E068941590159135916591959105900B
:101750007FE27395E118F10A430B560BC90BD009D0
:10176000C0F7E10CF11E431F561FC91FD01D7EF4A8
:10177000703311F48A95E6CFE894015030F0080FE9
:101780000AF40027021708F4202F2395022F7A333A
:1017900028F079E37D932A95E9F710C07D932A9587
:1017A00089F6069497956795379517951794E118DC
:1017B000F10A430B560BC90BD00998F023957E9183
:1017C00073957A3308F070E37C932013B8F77E9119
:1017D00070617D9330F0839571E37D9370E32A957A
:1017E000E1F71124EF90FF900F911F91CF91DF91BE
:1017F000992787FD909508950E94010C08F481E0D7
:101800000895990F0008550FAA0BE0E8FEEF161691
:101810001706E807F907C0F012161306E407F507E4
:1018200098F0621B730B840B950B39F40A2661F058
:10183000232B242B252B21F408950A2609F4A140FB
:10184000A6958FEF811D811D08952F923F924F9293
:101850005F926F927F928F929F92AF92BF92CF9240
:10186000DF92EF92FF920F931F93CF93DF93CDB749
:10187000DEB7CA1BDB0B0FB6F894DEBF0FBECDBFC1
:1018800009942A88398848885F846E847D848C8492
:101890009B84AA84B984C884DF80EE80FD800C819B
:1018A0001B81AA81B981CE0FD11D0FB6F894DEBF7E
:1018B0000FBECDBFED0108950E94010C08F48FEF1B
:1018C0000895A1E21A2EAA1BBB1BFD010DC0AA1F81
:1018D000BB1FEE1FFF1FA217B307E407F50720F099
:1018E000A21BB30BE40BF50B661F771F881F991F14
:1018F0001A9469F760957095809590959B01AC015D
:10190000BD01CF010895EE0FFF1F0590F491E02D6A
:1019100009940F931F93CF93DF938230910510F4B6
:1019200082E090E0E0912E02F0912F0220E030E082
:10193000A0E0B0E0309719F140815181028113811C
:1019400048175907C8F08417950769F4109731F0C4
:1019500012960C93129713961C9327C000932E0295
:1019600010932F0222C02115310519F04217530799
:1019700018F49A01BD01EF01DF01F801DBCF211559
:101980003105F9F0281B390B2430310580F48A81A8
:101990009B816115710521F0FB019383828304C053
:1019A00090932F0280932E02FE01329644C0FE01D6
:1019B000E20FF31F819391932250310939832883D9
:1019C0003AC020912C0230912D02232B41F420911A
:1019D00002013091030130932D0220932C022091BB
:1019E0000001309101012115310541F42DB73EB7B9
:1019F0004091040150910501241B350BE0912C020C
:101A0000F0912D02E217F307A0F42E1B3F0B2817CD
:101A1000390778F0AC014E5F5F4F2417350748F067
:101A20004E0F5F1F50932D0240932C028193919390
:101A300002C0E0E0F0E0CF01DF91CF911F910F9164
:101A40000895CF93DF93009709F481C0FC0132978A
:101A500013821282A0912E02B0912F02109781F46E
:101A600020813181820F931F20912C0230912D0211
:101A70002817390751F5F0932D02E0932C0267C027
:101A8000ED0120E030E0CE17DF0740F44A815B81B2
:101A90009E0141155105F1F0EA01F5CFD383C283D0
:101AA00040815181840F951FC817D90759F4888147
:101AB0009981840F951F0296918380838A819B81EF
:101AC000938382832115310529F4F0932F02E0934B
:101AD0002E023DC0E901FB83EA8349915991C40F6D
:101AE000D51FEC17FD0761F480819181840F951F4C
:101AF0000296E90199838883828193819B838A83FB
:101B0000E0E0F0E012968D919C911397009719F008
:101B1000FD01DC01F7CF8D919C9111979D012E5F06
:101B20003F4F820F931F20912C0230912D022817D6
:101B3000390769F4309729F410922F0210922E027F
:101B400002C013821282B0932D02A0932C02DF9167
:101B5000CF910895A0E0B0E0E0EBFDE00C94290CFB
:101B6000EC01009721F4CB010E94890CB4C0FC0168
:101B7000E60FF71F9C0122503109E217F30708F422
:101B8000A8C0D9010D911C91119706171707B0F045
:101B90000530110508F49BC0C80104978617970704
:101BA00008F495C002501109061B170B01931193FD
:101BB0006D937C93CF010E94210D89C05B01A01A17
:101BC000B10A4C01800E911EA0912E02B0912F02FD
:101BD000612C712CE12CF12C109709F446C08D91E9
:101BE0009C911197A815B905B1F56C0142E0C40E9E
:101BF000D11CCA14DB0478F14C018A189B086401DB
:101C000042E0C40ED11C1296BC9012971396AC9170
:101C1000B5E0CB16D10440F0B282A38391828082DA
:101C2000D9016D937C9309C00E5F1F4F800F911FE8
:101C3000F90191838083EB2DFA2FE114F10431F047
:101C4000D7011396FC93EE93129741C0F0932F02A5
:101C5000E0932E023CC06816790608F43C017D0131
:101C600012960D90BC91A02DB7CF80912C0290912F
:101C70002D0288169906E1F466167706C8F480915D
:101C8000000190910101009741F48DB79EB74091FA
:101C9000040150910501841B950BE817F907C8F45E
:101CA000F0932D02E0932C02F901718360830FC041
:101CB000CB010E94890C7C01009759F0A801BE015C
:101CC0000E94750ECE010E94210DC70104C0CE01F5
:101CD00002C080E090E0CDB7DEB7EEE00C94450C9A
:101CE00081E090E0F8940C948E0EFB01DC0102C0C0
:101CF00001900D9241505040D8F70895FB01DC014E
:101D00008D91019080190110D9F3990B0895FB0171
:101D1000DC0101900D920020E1F70895F894FFCFC7
:101D2000000030028000000000006003C902F702DA
:101D3000AD03280306031A030D0A0064726561707F
:101D40007461007374616E676100446574656374E7
:101D50006174206F62737461636F6C206C612073B7
:101D6000656E7A6F72756C200028002C20002900A7
:00000001FF
