:100000000C94DF000C9407010C9407010C94070179
:100010000C9407010C9407010C9407010C94070140
:100020000C9407010C9407010C9407010C94070130
:100030000C9407010C9407010C9407010C94070120
:100040000C946E030C9407010C94DE030C94B8031B
:100050000C9407010C9407010C9407010C94070100
:100060000C9407010C94070100407A10F35A00A089
:10007000724E18090010A5D4E80000E87648170071
:1000800000E40B54020000CA9A3B000000E1F505B1
:10009000000080969800000040420F000000A086FB
:1000A00001000000102700000000E803000000002D
:1000B0006400000000000A000000000001000000D1
:1000C00000002C76D888DC674F0823DFC1DFAE59EB
:1000D000E1B1B796E5E3E453C63AE651997696E87E
:1000E000E6C28426EB898C9B62ED407C6FFCEFBC02
:1000F0009C9F40F2BAA56FA5F490055A2AF75C932D
:100100006B6CF9676DC11BFCE0E40D47FEF520E662
:10011000B500D0ED902E0300943577050080841E45
:10012000080000204E0A000000C80C333333330FA0
:10013000986E12831141EF8D2114893BE65516CF3D
:10014000FEE6DB18D1844B381BF77C1D901DA4BB49
:10015000E424203284725E228100C9F124ECA1E5FE
:100160003D270000000023002600290000000000B9
:10017000240027002A0000000000250028002B0092
:10018000040404040404040402020202020203033D
:100190000303030301020408102040800102040845
:1001A00010200102040810200000000800020100D5
:1001B000000304070000000000000000980611245E
:1001C0001FBECFEFD8E0DEBFCDBF21E0A4E2B1E09B
:1001D00001C01D92A23DB207E1F711E0A0E0B1E03D
:1001E000EAE2FCE102C005900D92A432B107D9F712
:1001F00010E0CFEDD0E004C02197FE010E94010C79
:10020000CE3DD107C9F70E9455040C94130E0C94EF
:10021000000090E0FC01E855FE4F3491FC01EC56E3
:10022000FE4F2491FC01E058FE4FE491EE2309F4C7
:100230003BC0332339F1333091F038F43130A9F039
:10024000323001F584B58F7D12C0373091F03830EF
:10025000A1F03430B9F4809180008F7D03C080918B
:1002600080008F77809380000DC084B58F7784BD28
:1002700009C08091B0008F7703C08091B0008F7D5E
:100280008093B000F0E0EE0FFF1FEA58FE4FA591FB
:10029000B4918FB7F894EC91611103C020952E238F
:1002A00001C02E2B2C938FBF0895CF93DF9390E046
:1002B000FC01EC56FE4F2491FC01E058FE4F849166
:1002C000882361F190E0880F991FFC01E459FE4FEB
:1002D000C591D491FC01EA58FE4FA591B4916111EA
:1002E00009C09FB7F8948881209582238883EC9178
:1002F0002E230BC0623061F49FB7F8943881822FAF
:10030000809583238883EC912E2B2C939FBF06C06E
:100310008FB7F894E8812E2B28838FBFDF91CF9180
:1003200008953FB7F8948091CA019091CB01A091B4
:10033000CC01B091CD0126B5A89B05C02F3F19F087
:100340000196A11DB11D3FBFBA2FA92F982F882755
:10035000820F911DA11DB11DBC01CD0142E0660FB0
:10036000771F881F991F4A95D1F70895CF92DF9282
:10037000EF92FF920F931F93CF93DF936C017A015B
:100380008B01C0E0D0E0CE15DF0589F0D8016D917A
:100390008D01D601ED91FC910190F081E02DC60117
:1003A0000995892B11F47E0102C02196ECCFC7017B
:1003B000DF91CF911F910F91FF90EF90DF90CF9041
:1003C0000895089580E090E00895FC01538D448DD8
:1003D000252F30E0842F90E0821B930B541710F0F0
:1003E000CF96089501970895FC01918D828D9817FD
:1003F00061F0828DDF01A80FB11D5D968C91928D09
:100400009F5F9F73928F90E008958FEF9FEF089505
:10041000FC01918D828D981731F0828DE80FF11DCE
:10042000858D90E008958FEF9FEF0895FC01918DE9
:10043000228D892F90E0805C9F4F821B91098F73E2
:100440009927089588E291E00E94160221E0892B05
:1004500009F420E0822F0895FC01848DDF01A80FAC
:10046000B11DA35ABF4F2C91848D90E001968F73DC
:100470009927848FA689B7892C93A089B1898C91FB
:1004800080648C93938D848D981306C00288F389C1
:10049000E02D80818F7D80830895EF92FF920F93EE
:1004A0001F93CF93DF93EC0181E0888F9B8D8C8D20
:1004B000981305C0E889F989808185FD24C0F62E4E
:1004C0000B8D10E00F5F1F4F0F731127E02E8C8DE7
:1004D000E8120CC00FB607FCFACFE889F9898081D1
:1004E00085FFF5CFCE010E942C02F1CF8B8DFE014E
:1004F000E80FF11DE35AFF4FF0820B8FEA89FB8969
:100500008081806207C0EE89FF896083E889F9896C
:1005100080818064808381E090E0DF91CF911F91A2
:100520000F91FF90EF900895CF93DF93EC01888DAA
:100530008823C9F0EA89FB89808185FD05C0A889E7
:10054000B9898C9186FD0FC00FB607FCF5CF80816D
:1005500085FFF2CFA889B9898C9185FFEDCFCE01B7
:100560000E942C02E7CFDF91CF91089580E090E0C8
:10057000892B29F00E94220281110C940000089519
:10058000CF93DF93EC0188819981009711F00E944D
:100590009C0C198218821D821C821B821A82DF9198
:1005A000CF9108950E94FE0D0F931F93CF93DF9379
:1005B000EC0188819981009729F02A813B812617D7
:1005C000370788F48B016F5F7F4F0E94340D0097CF
:1005D00061F0998388831B830A832C813D81232BBF
:1005E00011F4FC01108281E001C080E0DF91CF9125
:1005F0001F910F910895EF92FF920F931F93CF9346
:10060000DF93FC01248135816115710511F480E0CF
:1006100019C041155105A9F07B01EC018A01020FB7
:10062000131FB8010E94D402882389F328813981DD
:100630008C819D81B701820F931F0E940C0E1D8338
:100640000C8381E0DF91CF911F910F91FF90EF908C
:100650000895CF93DF93EC016115710561F0FB0103
:1006600001900020E9F73197AF01461B570B0E941C
:10067000FB02811103C0CE010E94C002CE01DF91B6
:10068000CF910895EF92FF920F931F93CF93DF9333
:100690008C017B016115710569F0FB01019000205F
:1006A000E9F73197EF01C61BD70BBE010E94D402B8
:1006B000811104C0C8010E94C00208C0F801D5839E
:1006C000C483B701808191810E940C0EC801DF9123
:1006D000CF911F910F91FF90EF9008951F920F926D
:1006E0000FB60F9211242F933F938F939F93AF9345
:1006F000BF938091C6019091C701A091C801B091AC
:10070000C9013091C50123E0230F2D3720F4019654
:10071000A11DB11D05C026E8230F0296A11DB11D24
:100720002093C5018093C6019093C701A093C8018F
:10073000B093C9018091CA019091CB01A091CC01E5
:10074000B091CD010196A11DB11D8093CA01909376
:10075000CB01A093CC01B093CD01BF91AF919F91FC
:100760008F913F912F910F900FBE0F901F90189572
:100770001F920F920FB60F9211242F933F934F9316
:100780005F936F937F938F939F93AF93BF93EF93F9
:10079000FF9388E291E00E942C02FF91EF91BF91BC
:1007A000AF919F918F917F916F915F914F913F9109
:1007B0002F910F900FBE0F901F9018951F920F92C0
:1007C0000FB60F9211242F938F939F93EF93FF9364
:1007D000E0913801F09139018081E0913E01F09182
:1007E0003F0182FD12C09081809141018F5F8F7324
:1007F00020914201821751F0E0914101F0E0E85D63
:10080000FE4F958F8093410101C08081FF91EF9150
:100810009F918F912F910F900FBE0F901F90189561
:10082000CF92DF92EF92FF920F931F93E82FF92F51
:1008300005C0015011092109310961F19081962308
:100840009417B9F305C0015011092109310911F1BB
:10085000908196239413F7CFC12CD12CE12CF12C4D
:100860000AC08FEFC81AD80AE80AF80A0C151D0545
:100870002E053F0579F080818623841791F36C2D36
:100880007D2D8E2D9F2D1F910F91FF90EF90DF906A
:10089000CF90089560E070E080E090E01F910F91AC
:1008A000FF90EF90DF90CF900895CF93DF93CDB777
:1008B000DEB7AE970FB6F894DEBF0FBECDBF78940B
:1008C00084B5826084BD84B5816084BD85B5826055
:1008D00085BD85B5816085BD80916E008160809306
:1008E0006E0010928100809181008260809381006F
:1008F000809181008160809381008091800081607F
:10090000809380008091B10084608093B1008091D9
:10091000B00081608093B00080917A008460809301
:100920007A0080917A00826080937A0080917A00C8
:10093000816080937A0080917A00806880937A0049
:100940001092C100E0913801F091390182E080837A
:10095000E0913401F09135011082E0913601F0917F
:1009600037018FEC808310924001E0913C01F091BF
:100970003D0186E08083E0913A01F0913B01808166
:1009800080618083E0913A01F0913B018081886031
:100990008083E0913A01F0913B01808180688083FF
:1009A000E0913A01F0913B0180818F7D808361E08D
:1009B00083E00E94550160E082E00E94550161E001
:1009C00089E00E94550123E0A22EB12C33E2832E50
:1009D000912C60E083E00E940901C5010197F1F7C5
:1009E00061E083E00E940901C4010197F1F760E032
:1009F00083E00E940901C5010197F1F7E6E9F1E002
:100A00006491E2E8F1E08491E82FF0E0EE0FFF1F3F
:100A1000EE59FE4F8591949100E412E42FE030E00E
:100A2000462F0E941004611571058105910551F052
:100A3000DC01CB010196A11DB11D2C013D01FFE0A0
:100A40007F2203C0412C512C3201C301B2010E940C
:100A5000930920E030E048E652E40E94540B6B0119
:100A60007C011CA21BA21EA21DA218A61FA28E0101
:100A70000F5F1F4F22E044E00E94C506BC01CE017B
:100A800083960E9442031AA619A61CA61BA61EA6A0
:100A90001DA62AE0A801C301B2010E94E506B80123
:100AA000CE0189960E9442031A8219821C821B82FF
:100AB0001E821D8209A51AA501151105A9F06DA4B4
:100AC0007EA4B301CE0101960E94D402811105C01B
:100AD000CE0101960E94C00207C07E826D82B801DD
:100AE00089819A810E940C0E68E171E0CE01019625
:100AF0000E9429038C014FA158A56BA17CA10E94E3
:100B0000FB02811103C0C8010E94C0026EE171E0C6
:100B1000C8010E942903FC014481558160817181D3
:100B200088E291E00E94B60142E050E061E271E0AB
:100B300088E291E00E94B60189819A810E949C0C12
:100B400089A59AA50E949C0C8BA19CA10E949C0C3B
:100B500020E030E0A901B601C7010E94FC0B181685
:100B6000CCF52090240130902501009126011091B0
:100B700027019101A801B601C7010E94E70A2B01D4
:100B80003C0120E030E0A9010E94FC0B18165CF447
:100B900020E030E048EC52E4C301B2010E94FC0BBB
:100BA0001816B4F00AC020E030E048EC52ECC30163
:100BB000B2010E948C0987FD0BC0C601D70180934A
:100BC000240190932501A0932601B09327010CC026
:100BD0006101780120E030E0A901B601C7010E945F
:100BE000FC0B18160CF073C020E030E048E452E42F
:100BF000B601C7010E948C0987FF69C09601A70151
:100C000060E070E088E492E40E94E70A20E030E0CF
:100C100040EA50E40E94F20920E030E040E151E473
:100C20000E94E80A0E94C60B6B017C018B0161E007
:100C300089E00E945501C114D10409F44CC00F3F52
:100C4000110511F461E048C0E1EBF1E084918330DB
:100C5000F9F048F48130B9F08230A1F584B58062B2
:100C600084BDC8BC3CC08730E9F0883019F18430BD
:100C700049F580918000806280938000D0928B0043
:100C8000C0928A002CC084B5806884BDC7BC27C0D0
:100C900080918000806880938000D0928900C0920B
:100CA00088001DC08091B00080688093B000C09221
:100CB000B30015C08091B00080628093B000C092F4
:100CC000B4000DC0003811050CF0BCCF04C061E0C9
:100CD00089E00E94550160E089E00E9409010E94BC
:100CE00091012B013C018EE1C82ED12CE12CF12C7D
:100CF0000E949101DC01CB0184199509A609B7096D
:100D0000883E9340A105B10558F0F1E0CF1AD10813
:100D1000E108F10828EE420E23E0521E611C711C0E
:100D2000C114D104E104F10419F70E94B60251CEB6
:100D3000E8E2F1E01382128288EE93E0A0E0B0E0F6
:100D400084839583A683B7838AE091E0918380832F
:100D500085EC90E09587848784EC90E09787868780
:100D600080EC90E0918B808B81EC90E0938B828B78
:100D700082EC90E0958B848B86EC90E0978B868B51
:100D8000118E128E138E148E0895EF920F931F936F
:100D9000CF93DF93E80147FD02C034E001C034E1A6
:100DA000E42F440FFF0BF7FF03C0F195E195F10924
:100DB000E32E022F2E2FAE010E941607CE01DF91E7
:100DC000CF911F910F91EF900895BB272A3051F4D6
:100DD000992342F4BDE290958095709561957F4F7F
:100DE0008F4F9F4F0C94F506BB27FA01A62F621771
:100DF000710581059105330B30FB66F0AA27660F5C
:100E0000771F881F991FAA1FA21710F0A21B6395B6
:100E10003850A9F7A05DAA3308F0A95DA19336F771
:100E2000B111B1931082CA010C947C094F925F9268
:100E30006F927F929F92AF92BF92CF92DF92EF928A
:100E4000FF920F931F93CF93DF93CDB7DEB7299710
:100E50000FB6F894DEBF0FBECDBF6A01122FB02EC1
:100E60002BE3201720F0FF24F394F00E02C0BCE324
:100E7000FB2E0F2D27E0AE014F5F5F4F0E94A408AD
:100E8000AC018981982F9970913031F0E1FC06C056
:100E9000E0FE06C090E205C09DE203C09BE201C0F7
:100EA00090E0EE2DE07183FF3CC0911102C083E021
:100EB00001C084E0811718F4212F281B01C020E015
:100EC000E1110BC0F601822F30E2882319F0319333
:100ED0008150FBCFC20ED11C20E0992329F0D6010E
:100EE0009C93F60131966F01C6010396E2FE0AC09B
:100EF0003EE4D6013C9341E411964C93119712962F
:100F00003C9306C03EE6F601308341E641833283DE
:100F1000FC01322F40E2332309F442C041933150A7
:100F2000FACF82FF44C0911102C083E001C084E087
:100F3000811718F4212F281B01C020E0E1110BC0FC
:100F4000F601822F30E2882319F031938150FBCFD4
:100F5000C20ED11C20E0992329F0D6019C93F60102
:100F600031966F01C6010396E2FE0BC039E4D6014B
:100F70003C933EE411963C93119736E412963C93D1
:100F800007C039E6F60130833EE6318336E6328328
:100F9000FC01322F40E2332319F041933150FBCF53
:100FA000FC01E20FF11D10828EEF9FEFB7C0F1E060
:100FB000911101C0F0E06F2F70E01416150624F4B3
:100FC0009A012F5F3F4F02C021E030E0260F371F0C
:100FD000BB2029F06B2D70E06F5F7F4F02C060E097
:100FE00070E0260F371F612F70E0261737071CF4BB
:100FF000121B212F01C020E03E2D387159F4D6017B
:10100000322F60E2332319F06D933150FBCFC20EC3
:10101000D11C20E0FF2331F0D6019C93B6016F5F15
:101020007F4F6B01E1110BC0F601922F30E3992342
:1010300019F031939150FBCFC20ED11C20E09F2DAF
:10104000940F3A81782F7071A72E84FF03C031333B
:1010500009F49150191624F4993018F098E001C061
:1010600091E0E42F852F57FF02C0E0E080E06E2F73
:10107000782FE0E0F0E0AEE29A2E3A01691A7108AA
:101080002A01461A570A0B2D10E0119501951109F6
:101090006F3F8FEF780729F4D6019C92C601019625
:1010A0006C014617570784F0661677066CF47F01CB
:1010B000E40CF51CA1E0B0E0AC0FBD1FEA0EFB1E76
:1010C000D7011196BC9002C090E3B92E615071090E
:1010D0003196C60101967C016017710724F0D60194
:1010E000BC926C01D5CF6417750741F4363320F4F8
:1010F000353321F4A11002C081E3B82EF601B0828D
:10110000F701822F90E2882319F091938150FBCF51
:10111000F701E20FF11D108280E090E029960FB6F2
:10112000F894DEBF0FBECDBFDF91CF911F910F911D
:10113000FF90EF90DF90CF90BF90AF909F907F9007
:101140006F905F904F900895283008F027E0332784
:10115000DA01990F311D87FD9160009661057105D7
:1011600039F432602E5F3D9330E32A95E1F708951C
:101170009F3F30F080387105610509F03C5F3C5FAE
:101180003D93913008F08068911DDF93CF931F93BA
:101190000F93FF92EF92192F987F9695E92F9695CE
:1011A0009695E90FFF27EE53FF4F99273327EE243B
:1011B000FF24A701E70105900894079428F4360F4F
:1011C000E71EF81E491F511D660F771F881F991FC4
:1011D0000694A1F70590079428F4E70EF81E491F1E
:1011E000561FC11D770F881F991F661F0694A1F710
:1011F0000590079428F4F80E491F561FC71FD11DEC
:10120000880F991F661F771F0694A1F70590079412
:1012100020F4490F561FC71FD81F990F661F771F4D
:10122000881F0694A9F784911095177041F0D69500
:10123000C79557954795F794E7941A95C1F7E8E64F
:10124000F0E0689415901591359165919591059010
:101250007FE27395E118F10A430B560BC90BD009D5
:10126000C0F7E10CF11E431F561FC91FD01D7EF4AD
:10127000703311F48A95E6CFE894015030F0080FEE
:101280000AF40027021708F4202F2395022F7A333F
:1012900028F079E37D932A95E9F710C07D932A958C
:1012A00089F6069497956795379517951794E118E1
:1012B000F10A430B560BC90BD00998F023957E9188
:1012C00073957A3308F070E37C932013B8F77E911E
:1012D00070617D9330F0839571E37D9370E32A957F
:1012E000E1F71124EF90FF900F911F91CF91DF91C3
:1012F000992787FD90950895DC01FC01672F719176
:101300007723E1F7329704C07C916D9370836291EB
:10131000AE17BF07C8F308950E94CE0908F481E014
:101320000895E89409C097FB3EF4909580957095D8
:1013300061957F4F8F4F9F4F9923A9F0F92F96E921
:10134000BB279395F695879577956795B795F11196
:10135000F8CFFAF4BB0F11F460FF1BC06F5F7F4F33
:101360008F4F9F4F16C0882311F096E911C0772345
:1013700021F09EE8872F762F05C0662371F096E84E
:10138000862F70E060E02AF09A95660F771F881F1D
:10139000DAF7880F9695879597F90895990F0008C1
:1013A000550FAA0BE0E8FEEF16161706E807F90737
:1013B000C0F012161306E407F50798F0621B730BD2
:1013C000840B950B39F40A2661F0232B242B252B53
:1013D00021F408950A2609F4A140A6958FEF811DF6
:1013E000811D08950E94050A0C94760A0E94680ADD
:1013F00038F00E946F0A20F0952311F00C945F0AD8
:101400000C94650A11240C94AA0A0E94870A70F3AE
:10141000959FC1F3950F50E0551F629FF001729F99
:10142000BB27F00DB11D639FAA27F00DB11DAA1FA8
:10143000649F6627B00DA11D661F829F2227B00DF5
:10144000A11D621F739FB00DA11D621F839FA00D80
:10145000611D221F749F3327A00D611D231F849FD0
:10146000600D211D822F762F6A2F11249F57504027
:101470009AF0F1F088234AF0EE0FFF1FBB1F661FA2
:10148000771F881F91505040A9F79E3F510580F06B
:101490000C945F0A0C94AA0A5F3FE4F3983ED4F3DD
:1014A000869577956795B795F795E7959F5FC1F70F
:1014B000FE2B880F911D9695879597F9089597F9BA
:1014C0009F6780E870E060E008959FEF80EC0895EA
:1014D00000240A9416161706180609060895002413
:1014E0000A9412161306140605060895092E03948D
:1014F000000C11F4882352F0BB0F40F4BF2B11F401
:1015000060FF04C06F5F7F4F8F4F9F4F089557FD5F
:101510009058440F551F59F05F3F71F04795880F61
:1015200097FB991F61F09F3F79F0879508951216F8
:1015300013061406551FF2CF4695F1DF08C01616A4
:1015400017061806991FF1CF869571056105089455
:101550000895E894BB2766277727CB0197F908956C
:101560002F923F924F925F926F927F928F929F92B3
:10157000AF92BF92CF92DF92EF92FF920F931F93A1
:10158000CF93DF93CDB7DEB7CA1BDB0B0FB6F89452
:10159000DEBF0FBECDBF09942A88398848885F8492
:1015A0006E847D848C849B84AA84B984C884DF8003
:1015B000EE80FD800C811B81AA81B981CE0FD11DE7
:1015C0000FB6F894DEBF0FBECDBFED0108955058A1
:1015D000BB27AA270E94FF0A0C94760A0E94680A79
:1015E00038F00E946F0A20F039F49F3F19F426F476
:1015F0000C94650A0EF4E095E7FB0C945F0AE92F62
:101600000E94870A58F3BA17620773078407950781
:1016100020F079F4A6F50C94A90A0EF4E0950B2EAF
:10162000BA2FA02D0B01B90190010C01CA01A00134
:101630001124FF27591B99F0593F50F4503E68F18F
:101640001A16F040A22F232F342F4427585FF3CFD0
:10165000469537952795A795F0405395C9F77EF4A1
:101660001F16BA0B620B730B840BBAF09150A1F0EA
:10167000FF0FBB1F661F771F881FC2F70EC0BA0F70
:10168000621F731F841F48F4879577956795B795F8
:10169000F7959E3F08F0B0CF9395880F08F09927F3
:1016A000EE0F9795879508950E94680B0C94760A23
:1016B0000E946F0A58F00E94680A40F029F45F3FC8
:1016C00029F00C945F0A51110C94AA0A0C94650A33
:1016D0000E94870A68F39923B1F3552391F3951B70
:1016E000550BBB27AA2762177307840738F09F5F43
:1016F0005F4F220F331F441FAA1FA9F335D00E2EB0
:101700003AF0E0E832D091505040E695001CCAF71C
:101710002BD0FE2F29D0660F771F881FBB1F2617DF
:1017200037074807AB07B0E809F0BB0B802DBF01B6
:10173000FF2793585F4F3AF09E3F510578F00C9485
:101740005F0A0C94AA0A5F3FE4F3983ED4F38695AF
:1017500077956795B795F7959F5FC9F7880F911DA6
:101760009695879597F90895E1E0660F771F881F92
:10177000BB1F621773078407BA0720F0621B730B45
:10178000840BBA0BEE1F88F7E09508950E94CD0BED
:101790006894B1110C94AA0A08950E948F0A88F0E7
:1017A0009F5798F0B92F9927B751B0F0E1F0660F25
:1017B000771F881F991F1AF0BA95C9F714C0B13066
:1017C00091F00E94A90AB1E008950C94A90A672F2C
:1017D000782F8827B85F39F0B93FCCF38695779595
:1017E0006795B395D9F73EF490958095709561957E
:1017F0007F4F8F4F9F4F08950E94CE0908F48FEFBF
:101800000895EE0FFF1F0590F491E02D0994CF93FA
:10181000DF938230910510F482E090E0E091D001F6
:10182000F091D10120E030E0C0E0D0E0309711F13C
:101830004081518148175907C0F04817590761F492
:1018400082819381209719F09B838A832BC0909388
:10185000D1018093D00126C02115310519F042171E
:10186000530718F49A01BE01DF01EF010280F381F2
:10187000E02DDCCF2115310509F1281B390B24306F
:10188000310590F412968D919C9113976115710515
:1018900021F0FB019383828304C09093D101809354
:1018A000D001FD01329644C0FD01E20FF31F819388
:1018B0009193225031092D933C933AC02091CE014F
:1018C0003091CF01232B41F420910201309103018B
:1018D0003093CF012093CE0120910001309101017E
:1018E0002115310541F42DB73EB7409104015091C7
:1018F0000501241B350BE091CE01F091CF01E217D9
:10190000F307A0F42E1B3F0B2817390778F0AC0122
:101910004E5F5F4F2417350748F04E0F5F1F5093FF
:10192000CF014093CE018193919302C0E0E0F0E0BB
:10193000CF01DF91CF9108950F931F93CF93DF9342
:10194000009709F48CC0FC01329713821282009137
:10195000D0011091D1010115110581F4208131814F
:10196000820F931F2091CE013091CF0128173907A4
:1019700079F5F093CF01E093CE0171C0D80140E03A
:1019800050E0AE17BF0750F412962D913C9113977B
:10199000AD012115310509F1D901F3CF9D01DA011E
:1019A0003383228360817181860F971F821793078B
:1019B00069F4EC0128813981260F371F2E5F3F4FD4
:1019C000318320838A819B8193838283452B29F4F1
:1019D000F093D101E093D00142C01396FC93EE93B3
:1019E0001297ED01499159919E01240F351FE2177D
:1019F000F30771F480819181840F951F02961196EF
:101A00009C938E938281938113969C938E931297CD
:101A1000E0E0F0E0D80112968D919C911397009729
:101A200019F0F8018C01F6CF8D919C9198012E5FF1
:101A30003F4F820F931F2091CE013091CF01281785
:101A4000390769F4309729F41092D1011092D0012E
:101A500002C0138212821093CF010093CE01DF9156
:101A6000CF911F910F910895A0E0B0E0EAE3FDE06F
:101A70000C94B40AEC01009721F4CB010E94070CEE
:101A8000B8C0FC01E60FF71F9C0122503109E21794
:101A9000F30708F4ACC0D9010D911C9111970617FA
:101AA0001707B0F00530110508F49FC0C80104976E
:101AB0008617970708F499C002501109061B170BE7
:101AC000019311936D937C93CF010E949C0C8DC068
:101AD0005B01A01AB10A4C01800E911EA091D001A9
:101AE000B091D10140E050E0E12CF12C109709F4C5
:101AF0004AC0A815B905D1F56D907C901197630186
:101B000082E0C80ED11CCA14DB0480F1A3014A197B
:101B10005B096A0182E0C80ED11C1296BC90129734
:101B20001396AC91B5E0CB16D10440F0B282A383FA
:101B300051834083D9016D937C930AC00E5F1F4F80
:101B4000C301800F911FF90191838083EB2DFA2F40
:101B5000E114F10431F0D7011396FC93EE93129740
:101B600044C0F093D101E093D0013FC08D919C918E
:101B700011974817590708F4AC017D0112960D9092
:101B8000BC91A02DB3CF8091CE019091CF0188154B
:101B90009905E1F446175707C8F480910001909128
:101BA0000101009741F48DB79EB740910401509117
:101BB0000501841B950BE817F907C8F4F093CF01D2
:101BC000E093CE01F901718360830FC0CB010E94C5
:101BD000070C7C01009759F0A801BE010E94030E7A
:101BE000CE010E949C0CC70104C0CE0102C080E05F
:101BF00090E0CDB7DEB7EEE00C94D00A81E090E043
:101C0000F8940C94130EFB01DC0102C001900D92BC
:101C100041505040D8F70895FB01DC0101900D922E
:0A1C20000020E1F70895F894FFCFCB
:101C2A000000D2018000000000004D02B601E5016B
:101C3A0094021602F40108026D73203D2000636DC0
:041C4A00000D0A007F
:00000001FF
